:020000040800F2
:10000000000E002075020008E71C0008E31C000831
:10001000E51C0008ED1A0008E328000800000000B5
:100020000000000000000000000000000B2300089A
:10003000231C000800000000C1210008CD23000897
:100040008F0200088F0200088F0200088F0200084C
:100050008F0200088F0200088F0200088F0200083C
:100060008F0200088F0200088F0200088F0200082C
:100070008F0200088F0200088F0200088F0200081C
:100080008F0200088F020008391900088F0200084B
:100090008F0200088F0200088F0200088F020008FC
:1000A0008F0200088F0200088F0200088F020008EC
:1000B0008F020008212400088F0200088F02000828
:1000C0008F0200088F0200088F0200088F020008CC
:1000D0008F020008E52500088F0200088F02000843
:1000E0008F0200088F0200088F02000800F002F85B
:1000F00000F0B0F80AA090E8000C82448344AAF112
:100100000107DA4501D100F0A5F8AFF2090EBAE80F
:100110000F0013F0010F18BFFB1A43F0010318473B
:10012000305E0000505E00000A444FF0000C10F8F2
:10013000013B13F0070408BF10F8014B1D1108BF65
:1001400010F8015B641E05D010F8016B641E01F805
:10015000016BF9D113F0080F1EBF10F8014BAD1C55
:100160000C1B09D16D1E58BF01F801CBFAD505E073
:1001700014F8016B01F8016B6D1EF9D59142D6D3CD
:10018000704700000023002400250026103A28BFF5
:1001900078C1FBD8520728BF30C148BF0B607047F9
:1001A0006E2900F02383702900F02D81662904F068
:1001B000AB84652904F0A884672904F0A58461292B
:1001C000AFF3008003681B0A28BF41F08001692952
:1001D00000F0D082642900F0CD82752900F0CA8237
:1001E0006F2900F01386782900F0F980E92900F0E2
:1001F000AD85E42900F0AA85F52900F0A785EF294F
:1002000000F01086F82900F0F8800368DB0928BFA9
:1002100041F08001632900F0A386732900F0A886CD
:10022000E32900F0B386F32900F0B8860020704778
:100230001FB500F001FE04000020002104F038F991
:10024000401C60600020002104F01CF9E0601FBD2C
:1002500010B510BD00F03CFF1146FFF7E9FF03F0B9
:10026000D3FF00F063FF03B4FFF7F2FF03BC02F01B
:1002700010FC00000948804709480047FEE7FEE7F8
:10028000FEE7FEE7FEE7FEE7FEE7FEE7FEE7FEE746
:1002900004480549054A064B70470000D123000871
:1002A000ED00000800080020000E0020000A0020D9
:1002B000000A00207047B2F120030AD5C2F12003E2
:1002C00020FA02F001FA03F321FA02F140EA0300F6
:1002D000704721FA03F04FF0000170470FB4044952
:1002E00010B503AA029800F0C1FC10BC5DF814FB25
:1002F000100000200FB4044910B503AA029800F0C2
:10030000B5FC10BC5DF814FB100000200FB41CB548
:10031000084B06AA7B4469460090059800F08DFCC6
:1003200004460020694600F09BFC20461CBC5DF89A
:1003300014FB00004909000070B504468569006897
:10034000C10601D5302600E02026C00707D070BDC9
:10035000D4E9012130469047206A401C20626D1E7E
:10036000F6D570BD70B5044685690078C00707D121
:1003700070BDD4E9012120209047206A401C2062F2
:100380006D1EF6D570BD0000F0B40D46018809055C
:1003900002D5214C7C4402E01F4C7C440E340021E9
:1003A00000F1240608E002F00F071209E75D42EAB7
:1003B00003721B097754491C52EA0307F3D10278F0
:1003C0000023120704D5702D06D009B10223113481
:1003D0002246F0BC00F075B901231034F8E770B57F
:1003E00004460D462146106800F039F902462946B8
:1003F0002046BDE870400023C6E7D21D22F0070367
:10040000D3E90023C0E70368126843F020030360C8
:100410000823C3610023B7E7A25A00002DE9F05F6B
:10042000894604464FF0000ADFF874B1FB44C0F877
:1004300020A02046E1688847002874D0252806D0EF
:10044000D4E901219047206A401C2062F1E7002690
:100450005F462046E16888472028054607DB312DA6
:1004600005D2781910F8200C08B10643F1E7B0075F
:1004700001D526F00406C4F81CA00027C4F818A073
:100480002A2D09D0284602F0FDFA38B304EB87087C
:10049000303DC8F8185019E059F8041B204604EB09
:1004A00087029161E1688847012F054618D1E0690C
:1004B000002820DA26F020061DE0D8F8180000EB0E
:1004C000800005EB40003038C8F818002046E1688D
:1004D0008847054602F0D6FA0028EED1012F0AD04F
:1004E0002E2D08D12046E16888477F1C0546022F43
:1004F00046F02006C4DBA069002803DA404246F03B
:100500000106A061F00701D026F010066C2D0BD07B
:10051000682D09D04C2D39D06A2D35D0742D35D0A9
:100520007A2D33D016E038E0E1682F462046884720
:10053000B842054609D16C2F26D04FF48060E1689F
:10054000064320468847054604E06C2F1AD04FF436
:10055000807006430DB3A5F14100192802D820355B
:1005600046F400664A462946204626604E46FFF776
:1005700017FE80B101280BD0F61D26F0070000F110
:10058000080956E74020E4E78020D8E70020D6E7B6
:1005900006F104094DE7284652E7206ABDE8F09FBE
:1005A000325A000040EA010310B59B070FD1042A1C
:1005B0000DD310C808C9121F9C42F8D020BA19BA2E
:1005C000884201D9012010BD4FF0FF3010BD1AB193
:1005D000D30703D0521C07E0002010BD10F8013BE8
:1005E00011F8014B1B1B07D110F8013B11F8014B0F
:1005F0001B1B01D1921EF1D1184610BD40EA010328
:10060000024630B59B0710D14FF0013400E008C21C
:1006100008C91D1B9D4315EAC41FF8D013F0FF0144
:1006200002F8011B0DD01B0AF8E711F8013B002B63
:1006300002F8013B05D011F8013B002B02F8013B09
:10064000F3D130BD704770477047704709684A055D
:1006500001D540B27047C905FCD500B270470968A2
:100660004A0501D5C0B27047C905FCD580B27047B4
:1006700070B50C460546012A05D02878800600D5BD
:10068000EA69002302E0012305E05B1C934202D2E9
:10069000E05C0028F9D1A869E618C01AA861286AA8
:1006A000184428622846FFF747FE04E0D5E90121F7
:1006B00014F8010B9047B442F8D32846FFF752FED6
:1006C00070BD2DE9F0470D4699469246044600F16B
:1006D00024080168880604D5E06921F01001216032
:1006E00000E00120A84201DD471B00E00027A169CE
:1006F0007A1902EB0900081AA0612078C00602D41A
:100700002046FFF719FE002608E0D4E901211AF877
:1007100006009047206A401C761C20624E45F4DBA0
:100720002078C0060AD52046FFF706FE06E0D4E989
:10073000012130209047206A401C2062381EA7F11A
:100740000107F4DC07E0D4E9012118F8050090471F
:10075000206A401C2062281EA5F10105F3DC20461A
:10076000FFF700FE2078000602D50220BDE8F087E2
:100770000120FBE72DE9F0410646002410687529A9
:10078000314616A510D0FFF761FF002802DA40427B
:1007900013A507E031688A0701D512A502E04907D1
:1007A00004D511A5012401E0FFF759FF00210A2219
:1007B00006F1240709E0B0FBF2FCB0FBF2F302FB08
:1007C0001C00303078541846491C0028F3D12346C9
:1007D0002A463046BDE8F041FFF773BF0000000035
:1007E0002D0000002B0000002000000011680268AE
:1007F000006A530501D508700AE0D30501D50880C9
:1008000006E0130603D5C217C1E9000200E0086044
:100810000120704770472DE9FF4F0C461E464FF0F0
:10082000FF378BB0D2E90001DDF860800A908A467C
:10083000C1F30A5505B93D46002108464FF00000B6
:10084000BAF1000F00F4400005DA00EB80004FF42D
:10085000400101EA50004FEA9059B9F1010F00DD63
:10086000B9460A9850EA4A000ED044F61050A5F254
:10087000FF3545432F14B8F1000F1ED07542291ED5
:100880001EDDC9F100021CE0B8F1010F4FF00000BD
:1008900001D0302103E0F24305E02154401CB04276
:1008A000FBDB30460022002121540B99C1F808805F
:1008B000C1E900200FB0BDE8F08FBD1B6D1CDEE765
:1008C0004A4600DA694206A800F06CFB06AB93E8E2
:1008D000070003AB83E8070050460A9900F070FC5C
:1008E0008DE80700A0F500501F3800900398002DF8
:1008F00009DD42F21F014A46084403A903906846F5
:1009000000F0CFFE08E0A0F500504A461F3803A9CA
:100910000390684600F0D9FE8DE807000004000C43
:1009200003D04FF0FF30410800E01046B8F1000F4F
:1009300003D00022009215461EE0751E05D400F07B
:100940007FFA303262556D1EF9D5B3460122084355
:1009500002D000227F1C04E02078302801D1002240
:100960007F1E002A099786D01DE0112D07DA00F0BE
:1009700067FA303262556D1C50EA0102F5D1084326
:1009800002D00098C8B10EE00021681E05E0235C8B
:10099000625C63542254401E491C8142F7DBAB4623
:1009A000A81B401E0990002004F80B000B98099A20
:1009B000C0F80880C0E9002B7CE711264FF0000842
:1009C00059E72DE9F04F88460446D21D22F0070171
:1009D00091B0D1E90001CDE90A0101F083FF02469F
:1009E0000B98C00F01D02D2007E02068810701D5AA
:1009F0002B2002E0202101EAC000032A099001D047
:100A0000072A05DB03464146204600F05FFA0BE16A
:100A10002078800601D5E06900E00620B8F1650F76
:100A2000814606D0B8F1660F18D0B8F1670F70D1C3
:100A300031E00020B9F1110F009001DB112301E03A
:100A400009F101030AAA01A90CA8FFF7E4FEDDE9F8
:100A50000C70002609F10105834647E001204B4652
:100A600000904FF000470AAA01A90CA8FFF7D3FE97
:100A7000DDE90DB00C995D46002610B909F10100C1
:100A80000D18B9EB050003D4C0F1FF3609F10105DB
:100A9000A5EB09002BE0B9F1010F01DA4FF00109D4
:100AA0000020B9F1110F0090484601DD112300E04C
:100AB00003460AAA01A90CA8FFF7ADFEDDE90C70F8
:100AC0004D4600268346207800070AD4AB4500DA5D
:100AD0005D4601A8012D04DD411911F8011C3029E2
:100AE00007D04F4502DA17F1040F04DA01208246DD
:100AF0000FE06D1EEEE7002F02DCED1B3E4403E02D
:100B0000781CA84200DD7D1CB81B00F1010A4FF0E3
:100B100000472078000703D4AA4501DB4FF0FF3AD5
:100B20000021B7F1004F0DF143088DF8431024D098
:100B300002202B23002F01DA7F422D230A21021EDF
:100B4000A0F1010000DC5FB197FBF1FC97FBF1F233
:100B500001FB1C7C17460CF1300C08F801CDEEE7C8
:100B6000A8F1010003702188090501D5452100E0A5
:100B70006521A0F1010800F8011C09980FA9A1EB5B
:100B80000807FF1D00B10120411901EBEA70A169BE
:100B90003844081A401EA0612078C00602D42046BE
:100BA000FFF7CAFB099828B1D4E901219047206AD0
:100BB000401C20622078C00622D52046FFF7BCFBEF
:100BC0001EE0002E04DBB34502DD01A8805D00E0DD
:100BD0003020D4E901219047206A401C2062761C15
:100BE000AAF101005FEA000A0AD100F025F9C06805
:100BF0000168405CD4E901219047206A401C2062D2
:100C0000281EA5F10105DCDC07E0D4E9012118F874
:100C1000010B9047206A401C2062381EA7F1010793
:100C2000F3DC2046FFF79EFB032011B043E60000F3
:100C300001694A1C02610878704700B58FB0CDE9A0
:100C400001310021059105497944CDE90310114690
:100C50006846FFF7E3FB0FB000BD0000E5FFFFFFB4
:100C60000A6802F8010B0A6070470000074B70B574
:100C70000D467B44FFF7E1FF0446284600F000FAEA
:100C800010B14FF0FF3070BD204670BDFB33000047
:100C90002DE9FF5F15468A460446DFF8AC80F8442C
:100CA0000027D8E900103E46CDE9001010E03AF8E0
:100CB00016106A4602A800F0E7F9411C07D0217817
:100CC000890603D5E269391891420DD80744761C8C
:100CD0002078800602D5E069B84205DDAE42E6DB49
:100CE0003AF816000028E2D1A069C01BA061204696
:100CF000FFF722FBD8E90010CDE90010002017E033
:100D00003AF818106A4602A800F0BEF9B0F1FF3FA9
:100D100081460BD000250DF1080B05E0D4E9012137
:100D20001BF8050090476D1C4D45F7D308F10100F5
:100D3000B0428046E4DB206A384420622046FFF758
:100D400011FBBDE8FF9F0000D25100002DE9F041EA
:100D50008046D21D22F007020025D2E90002F529C3
:100D600015A614D0011E72F1000106DA0023D0EBA3
:100D7000030063EB020211A608E0D8F800108B070D
:100D800001D50FA602E0490701D50EA6012511469F
:100D9000002408F1240704E000F052F830323A55FC
:100DA000641C50EA0102F7D12B46324621464046E8
:100DB000BDE8F041FFF785BC000000002D000000F9
:100DC0002B0000002000000030B4002100F12404BA
:100DD00008E002F00705D208303542EA4372DB082A
:100DE0006554491C52EA0305F3D10468002310A29C
:100DF000250708D504F020040C4304D0C46901235E
:100E00000CA2641EC46130BCFFF75BBC10B5044685
:100E100021461068FFF723FC02462046BDE810403B
:100E20000023D1E7D21D22F00701D1E90023CBE74F
:100E3000000000003000000000487047BC070020A0
:100E400030B5B0F10A024FEA900E71F100034EEA9C
:100E5000817EB0EB0E0061EB91014FEA101E4EEA6D
:100E6000017E10EB0E0041EB11114FEA102E4EEAFD
:100E7000016E10EB0E0041EB11214FEA104E4EEACD
:100E8000014E10EB0E0041EB1141401841F1000101
:100E90004FEAD00040EA41704FEAD10110EB8005E3
:100EA0004FEA810444EA907444EB01046D1944EB69
:100EB0000404521BA3414FF0000348BF0A3200D57F
:100EC00030BD401C41F1000130BD00002DE9F04172
:100ED0001F46044603260168072A01F4006004DB6C
:100EE00008B116A505E016A503E008B115A500E0B8
:100EF00015A521F010002060A069C01EA0610FB1EF
:100F0000401EA0612046FFF717FA4FB1D4E9012136
:100F100038469047206A401C2062C01C206206E0D0
:100F2000206AFAE7D4E9012115F8010B9047761EF3
:100F3000F8D22046FFF716FABDE8F0814E414E0088
:100F40006E616E00494E4600696E660010B54369D9
:100F500013B1AFF3008001E0FFF78AFB012010BD61
:100F6000127800F124010A7000224A700122EDE794
:100F700011684FF0FF32E9E710B5436913B1AFF3E1
:100F8000008001E0FFF784FE012010BD128800F10F
:100F9000240182840022C2840122EDE711684FF00F
:100FA000FF32E9E72DE9F047814616468AB033481B
:100FB00078440DC88DE80D0030487844801C03AC9F
:100FC0000DC884E80D0041F69B300844372190FBA2
:100FD000F1F290FBF1F5A5F1800501FB12041B3C39
:100FE00002D56442012000E00020DFF890A0804696
:100FF0000027FA44AAF1BE0A0DE0E00709D0324604
:10100000684607EB47010AEB810100F05EFB8DE8C3
:10101000070064107F1C002CEFD1184F7F44AC3FB9
:1010200018E0E80714D007EB04100DF1180A90E857
:101030000E008AE80E00C068F04201D198190890AD
:10104000324606A903A800F040FB03AB83E8070083
:101050006D10641C002DE4D132466946B8F1000FD2
:1010600003A802D000F01DFB01E000F02EFBC9E94F
:101070000001C9F808200AB0BDE8F087444F00001D
:10108000007B00F08000704770B516460C460546A0
:1010900000F044F8036893F80101012806D0FF2C02
:1010A0000FD8185D68B101202C7070BDD3F807010E
:1010B0003246214603F2071303442846BDE8704038
:1010C00018474FF0FF3070BD004870479C07002064
:1010D0007546FFF7F9FFAE4605006946534620F016
:1010E0000700854618B020B5FFF7D2F8BDE82040CC
:1010F0004FF000064FF000074FF000084FF0000BD4
:1011000021F00701AC46ACE8C009ACE8C009ACE886
:10111000C009ACE8C0098D467047000010B5FFF764
:101120008BFE001D10BD00BF8933000010B50446C2
:10113000AFF300802046BDE81040FFF794B80000F0
:101140004FF0013C50F8042B51F8043B9A4221D156
:10115000A2EB0C03934313EACC1317D150F8042BE2
:1011600051F8043B9A4215D1A2EB0C03934313EAC6
:10117000CC130BD150F8042B51F8043B9A4209D1FF
:10118000A2EB0C03934313EACC13DBD04FF0000027
:10119000704700BFD01A01BAB1FA81F101F018010D
:1011A00022FA01F0CB40C1F12001DBB2C0B2C01A7B
:1011B0002CFA01F3D11A914311EAC311E6D1704719
:1011C0005FEA400C08BF91F0000F4FEA8C234FEA12
:1011D000C12243EA51514FEA1C5018BF00F5F040BC
:1011E0004FEA300018BF41F000415FEA6C5C00F04C
:1011F0002980BCF1FF3F08BF40F080407047130CCE
:1012000006BF12044FF0100C4FF0000C130E04BF79
:1012100012020CF1080C130F04BF12010CF1040CA4
:10122000930F04BF92000CF1020CD30F04BF5200C5
:101230000CF1010C11464FF00002A0F11F00A0EBD1
:101240000C00704711F0004F08BF704731F00041AB
:101250003FF4D5AF0B0C06BF09044FF0100C4FF054
:10126000000C0B0E04BF09020CF1080C0B0F04BF9D
:1012700009010CF1040C8B0F04BF89000CF1020C66
:10128000CB0F04BF49000CF1010CCCF12003A0EB03
:101290000C0022FA03F302FA0CF241EA030100F116
:1012A0000100704720F07F4C80EA030023F07F4765
:1012B000ACEB070303F57C5300F0004003F1FF03A0
:1012C0002DE980494FEA154B09B44FEA144325EA4A
:1012D0000B4E24EA03480FF2042606EB13274908B5
:1012E0003E785FEA320203FB0667C7F5000707FB9B
:1012F00006F64FEA54374FEAD64606F1020607FBD8
:10130000066CCCF1005C4FEA1C472CEA074C07FB4B
:1013100006F40CFB06F504EB15464FEA961634BFAF
:1013200000204FF000404FEAD13706FB07FC4FEAA0
:101330001C4C0CFB0BF7D21B03FB0CF761EB0701FA
:101340000CFB0EF7B0EB074072EB17420CFB08F7F3
:1013500034BFA2EB0742B2EB074261EB17414FEA01
:101360000C444FEA910706FB07FC4FEA1C4C0CFBB0
:101370000BF7B0EBC74072EB573203FB0CF734BFEF
:10138000A2EBC742B2EBC74261EB57310CFB0EF741
:10139000B0EBC70072EB57720CFB08F734BFA2EB3F
:1013A000C702B2EBC70261EB5771039F4FEA81613D
:1013B00041EA921104EBCC044FEAD1374FEA826242
:1013C00006FB07FC42EA90124FEA80604FEA1C4C91
:1013D0000CFB0BF7D21B03FB0CF761EB07010CFBBB
:1013E0000EF7B0EB074072EB17420CFB08F734BF67
:1013F000A2EB0742B2EB074261EB17414FEA8C5573
:101400004FEA910704EB9C2406FB07FC4FEA1C4CB7
:101410000CFB0BF7B0EBC74072EB573203FB0CF73A
:1014200034BFA2EBC742B2EBC74261EB57310CFBB2
:101430000EF7B0EBC70072EB57720CFB08F734BF26
:10144000A2EBC702B2EBC70261EB577115EB4C255B
:101450004FEA816141EA92114FEA82624FEAD13745
:1014600042EA901206FB07FC44F100044FEA806058
:101470004FEA1C4C0CFB0BF7D21B03FB0CF761EB88
:1014800007010CFB0EF7B0EB074072EB17420CFBA9
:1014900008F734BFA2EB0742B2EB074261EB1741FA
:1014A00015EB1C154FEA813141EA92414FEA823235
:1014B00042EA90424FEA80304FEA0C7644F1000451
:1014C00048EA03434EEA0B484FF0000EB2EB080C1B
:1014D00071EB030724BF624639464EEB0E0E4FF008
:1014E000000B0018524149414BEB0B0BB2EB080CBF
:1014F00071EB03077BF1000B24BF624639464EEBCC
:101500000E0E4FF0000B0018524149414BEB0B0BF4
:10151000B2EB080C71EB03077BF1000B24BF6246B2
:1015200039464EEB0E0E51EA020718BF46F001068F
:1015300016EB0E7655F1000254F1000103D5BDE81B
:101540008901BDE80088BDE88901BDE80048B619F9
:10155000524141EB0101A3F10103704780807F7E7E
:101560007D7C7B7A79787776767574737271717019
:101570006F6E6E6D6C6C6B6A6A69686867666665CB
:101580006464636362616160605F5F5E5E5D5D5C59
:101590005C5B5B5A5A5959585857575656555555CA
:1015A0005454535352525251515050504F4F4F4E2A
:1015B0004E4D4D4D4C4C4C4B4B4B4A4A4A49494978
:1015C00048484847474747464646454545444444BA
:1015D000444343434342424242414141002B26D4CB
:1015E000770021D01CB54FEA370703B44FF0100045
:1015F0004FF010014FF000000FBCBDE810400BF1A0
:10160000010BBBF1010F08BF5FEA170722BF12F100
:10161000010211F101014FF0004143F1000300F01C
:10162000004043EA00007047F9D35708DAE746EA7A
:10163000064613F1400F4FEA16461FDD13F1200F47
:10164000DFBF16430A46002120335B42C8D0C3F1F6
:10165000200746EA064602FA07F74FEA164646EA28
:101660000706C3F1200722FA03F201FA07F721FA6D
:1016700003F14FF0000342EA0702B1E746EA02062F
:1016800046EA06464FEA164646EA0106BCBF46EA67
:101690000646360C4FF000034FF000024FF00001F9
:1016A0009EE72DE9C048934630B491E8380007C85A
:1016B00031EA400C48BF34EA430C03D5FFF7F2FD92
:1016C000FFF78CFFF0BCBDE800882DE9C0489346C9
:1016D00030B491E8380007C810F0804F08BF13F00D
:1016E000804F03D100F005F8FFF778FFF0BCBDE8AC
:1016F000008820F07F4780EA030023F07F4C07EB4F
:101700000C03A3F57C5300F00040A3F1FE0392F01C
:10171000000F00F0B38095F0000F00F077802DE906
:1017200001494FEA11404FEA144621EA004800FB04
:1017300006FC24EA064708FB06F607FB08F800FB50
:1017400007F718EB06484CEB164C4FEA124B18EB18
:1017500007484FEA15464CEB174022EA0B4E0BFBAD
:1017600006FC25EA06470EFB06F607FB0EFE0BFB02
:1017700007F71EEB064E4CEB164C4FF000061EEB27
:10178000074E4CEB174B18EB0B0840F1000018EB21
:101790000E0B58EB000840F100008F1A4FF00001CB
:1017A0003CBFC943661B14BFB5EB040C00213CBF12
:1017B000C943F61B4FEA17444EEA8E0E27EA04454A
:1017C0004FEA1C4704FB07622CEA074C05FB07F7AE
:1017D0000CFB05F604FB0CFC16EB074642EB17422C
:1017E00016EB0C4642EB1C421BEB060658EB0202C2
:1017F000414146EA9E0601D5BDE80189B61952412C
:1018000041EB0101A3F10103BDE801894FEA144551
:101810004FEA114724EA054621EA074C05FB07F485
:1018200006FB07F70CFB06F105FB0CFC11EB07416F
:1018300044EB17444FEA124711EB0C4144EB1C44B4
:1018400022EA074C05FB07F206FB07F70CFB06F63E
:1018500005FB0CFC16EB074642EB174216EB0C4659
:1018600042EB1C456A1854F1000148BF7047B61995
:10187000524141EB0101A3F10103704795F0000FC4
:1018800037D04FEA11424FEA144721EA024624EAD0
:10189000074C02FB07F106FB07F70CFB06F402FB03
:1018A0000CFC14EB074441EB17414FEA154714EBCE
:1018B0000C4441EB1C4125EA074C02FB07F506FBF3
:1018C00007F70CFB06F602FB0CFC16EB074645EB94
:1018D000174516EB0C4645EB1C42121951F100015D
:1018E00048BF7047B619524141EB0101A3F1010312
:1018F00070474FEA14454FEA114724EA054621EAAA
:10190000074C05FB07F106FB07F70CFB06F24FF04F
:10191000000605FB0CFC12EB074241EB174112EBF2
:101920000C4251EB1C4148BF7047921841EB01013A
:10193000A3F101037047000070B50A4D4FF4A07485
:101940002146284600F042F800280AD0064842689E
:101950000AB1AD20904721462846BDE8704000F00E
:1019600016B870BD00240140380000204268024BC8
:101970001A400A4342607047FFFD3FFF426822F071
:101980001F020A43426070474162826270476FEAF9
:101990001121016070470029816802D041F00101E6
:1019A00001E021F00101816070470029816802D0C7
:1019B00041F4807101E021F480718160704701463B
:1019C00000208968490700D50120704710B50246FC
:1019D000002054680B0AC9B20C401168194202D0A9
:1019E000002C00D0012010BD0146002089680907A5
:1019F00000D501207047002A4268C9B201D00A43CD
:101A000000E08A434260704710B542680E4B0C7983
:101A10001A400B6842EA04221343436083680B4A6E
:101A20001340D1E9024222434C7943EA44031A436A
:101A30008260C26A097C22F47002491EC9B242EA7D
:101A40000151C16210BD0000FFFEF0FFFDF7F1FF84
:101A500070B5072409290AD9C568A1F10A0606EB61
:101A60004606B440A543B3401D43C56007E0056981
:101A700001EB4106B440A543B3401D4305611F235C
:101A8000072A09D2446B521E02EB820293409C4308
:101A900091400C43446370BD0D2A09D2046BD21FE0
:101AA00002EB820293409C4391400C43046370BD5F
:101AB000C46A0D3A02EB820293409C4391400C436E
:101AC000C46270BD816841F00801816070470029DF
:101AD000816802D041F4A00101E021F4A0018160FD
:101AE0007047816841F0040181607047FEE700297A
:101AF000016802D041F0010102E04FF6FE72114090
:101B00000160704701684FF6FE72114001600021CC
:101B1000016041608160C1603149314A08399042B9
:101B200003D1486840F00F0006E02D4A143290427D
:101B300004D1486840F0F00048607047284A2832D5
:101B4000904203D1486840F47060F5E7244A3C3283
:101B5000904203D1486840F47040EDE7204A50328B
:101B6000904203D1486840F47020E5E71C4A643293
:101B7000904203D1486840F47000DDE7184A78329B
:101B8000904203D1486840F07060D5E7154A111FB4
:101B9000904203D1086840F00F0006E0114A143269
:101BA000904204D1086840F0F000086070470D4A88
:101BB0002832904203D1086840F47060F5E7094A82
:101BC0003C32904203D1086840F47040EDE7054A8A
:101BD00050329042EAD1086840F47020E5E70000F6
:101BE000080002400804024030B5036847F6F0726E
:101BF00093430C6A8A682243D1E904452C4322436B
:101C00008C692243CC6922434C6A22438C6A22436A
:101C10001A430260CA6842600A6882604968C1600B
:101C200030BD70470349024600200968114200D0C8
:101C30000120704700040140F0B5CA78002502F089
:101C40000F03D20601D58A7813430A784FF00F0E9E
:101C500012F0FF0F4FF001021CD004680F8802FA47
:101C600005F63740B74211D14FEA850C0EFA0CF752
:101C700024EA070703FA0CF43C43CF78282F02D05C
:101C8000482F02D002E0466100E006616D1C082D7D
:101C9000E4D304600C88FF2C1ED944685FF0000672
:101CA00006F1080702FA07F50F882F40AF420FD15F
:101CB0004FEA860C0EFA0CF7BC4303FA0CF73C43D0
:101CC000CF78282F00D14561CF78482F00D105610A
:101CD000761C082EE4D34460F0BD41617047016179
:101CE0007047FEE7FEE770474FF4A06000F032B89F
:101CF00070B50F23C47801780122F4B1144C246824
:101D0000457804F4E064C4F5E064240AC4F10406F0
:101D1000E3408478B5401C402C4301F1E0212301CD
:101D200081F80034007800F01F018A4040098000EB
:101D300000F1E020C0F8002170BD01F01F008240DA
:101D40004809800000F1E020C0F8802170BD00004B
:101D50000CED00E0024908430249086070470000AA
:101D60000000FA050CED00E030B40021084B0A46F3
:101D70005FF0000003EBC0046254401CC0B2802836
:101D8000F8D3491CC9B20829F2D330BC00F0E4B83A
:101D90009C02002070B57F281CD83F291AD8CC0897
:101DA00001F0070301259D40EBB20B4D05EBC0058B
:101DB0002E5D1E4096420DD0002A2A5D01D01A43A6
:101DC00000E09A432A5500F0E1F8285DBDE8704034
:101DD00000F0EEB970BD00009C0200202DE9F04734
:101DE0001E46174688460546DDF820900CE044461E
:101DF00006E04A4621462846FFF7CCFF641CE4B2C1
:101E0000B442F6D96D1CEDB2BD42F0D9BDE8F08701
:101E100070B586B00121082000F0F6F90121880391
:101E200000F0E6F94FF48050ADF8140010208DF862
:101E300017001E4E03248DF8164005A93046FFF703
:101E4000FBFE4FF42045ADF8145018208DF8170014
:101E50008DF8164005A93046FFF7EEFE29463046BC
:101E6000FFF73DFF0020ADF80000ADF804004FF48F
:101E70008271ADF802100221ADF806100121ADF813
:101E80000C00ADF80810ADF80E0049020720084C10
:101E9000ADF80A10ADF810006946204600F019FAB6
:101EA0000121204600F004FA06B070BD000C01408C
:101EB0000038004010B5FFF7ABFFAE2000F070F91E
:101EC000D52000F06DF9F02000F06AF9A82000F0AC
:101ED00067F93F2000F064F9D32000F061F9002099
:101EE00000F05EF9402000F05BF98D2000F058F919
:101EF000142000F055F9202000F052F9022000F0E3
:101F00004FF9A12000F04CF9C82000F049F9DA207F
:101F100000F046F9122000F043F9812000F040F96A
:101F2000FF2000F03DF9D92000F03AF9F12000F04F
:101F300037F9DB2000F034F9302000F031F9A4202B
:101F400000F02EF9A62000F02BF9AF2000F028F9C0
:101F5000BDE81040FFF708BF70B50B4E002400BF6E
:101F600004F1B000C0B200F01BF9002506EBC5007B
:101F7000005D00F01DF96D1CEDB2802DF6D3641CE0
:101F8000E4B2082CECD370BD9C02002010B50446CE
:101F9000B02000EBD100C0B200F002F904F00F0055
:101FA00000F0FEF8102000EB1410BDE8104000F027
:101FB000F7B800002DE9F05F203A98468A460546BA
:101FC00002F0FF0B0024DFF87C9035E0B8F1070F3A
:101FD00012D0B8F1100F14D01B490BEB4B0001EBE2
:101FE00080000835065D082089F80000EDB2002762
:101FF00030060AD50A9A0BE01449CBEBCB00084413
:10200000EFE7134901EB0B10EBE70A98C0B1002290
:1020100051462846FFF7BEFE7006060E6D1E7F1C59
:1020200099F80000FFB2EDB28742E1D30AF1010056
:10203000641C00F0FF0AE4B24445C7D3BDE8F09F3A
:102040000122E5E7280000201C5300087C5000080E
:102050009C57000870B59AB00D4606461C4607A16D
:1020600001A8FEF753F901200090234601AA294652
:10207000304600F063F81AB070BD0000255800002B
:102080002DE9F84F8B464FF00A08B2FBF8F11546E0
:10209000044608FB1150DDE90A763030C2B29A4698
:1020A000594620460096FFF785FF092D01D8012FDC
:1020B00042D9082C40D34FF06409B5FBF9F109FB74
:1020C0001151B1FBF8F03030C2B2A4F10800C0B237
:1020D000534659460096FFF76DFF632D01D8022F36
:1020E0002AD9102C28D34FF47A78B5FBF8F108FBE5
:1020F0001151B1FBF9F03030C2B2A4F11000C0B2FE
:10210000534659460096FFF755FF454501D2032F28
:1021100012D9182C10D342F21070B5FBF0F100FB6D
:102120001151B1FBF8F03030C2B2183CE0B2534666
:1021300059460096FFF73EFFBDE8F88F2DE9F843BA
:102140001F46154688460446089E0AE03B4641461F
:1021500020460096FFF72EFF0834E4B26D1C772C62
:1021600002D82A78002AF1D1BDE8F88370B5054677
:1021700000240A4E03E0641CE4B2C82C0DD80221EE
:10218000304600F09FF80028F5D004480C30058058
:10219000BDE87040012000F06FBD70BD0038004008
:1021A000024A0021C2F8B011FFF7E0BF00802142CF
:1021B000024A0121C2F8B011FFF7D8BF00802142C6
:1021C00070470000034A516821F4404101435160C7
:1021D0007047000000100240044A0029516901D0F4
:1021E000014300E08143516170470000001002404C
:1021F000044A0029D16901D0014300E08143D16143
:102200007047000000100240044A0029916901D083
:10221000014300E0814391617047000000100240DB
:1022200030B51F494A6812F00C031E4A03D0042B34
:1022300001D0082B21D002604A680F231A4C03EA10
:102240001212A35C0268DA4042604B68072505EA77
:102250001323E35C22FA03F383604B6805EAD3237C
:10226000E35CDA40C2604968032303EA9131231F2B
:10227000595CB2FBF1F1016130BD4A684B6802F470
:1022800070124FF0020413F4803F04EB924202D02C
:102290004B689B0301D5054B00E0024B5A43CAE74C
:1022A0000010024000127A001800002000093D00D2
:1022B0000029018802D041F0400101E021F04001F5
:1022C000018070470246002012890A4200D0012096
:1022D000704730B502884C8802F441530A88CD8893
:1022E00022438C882C4322430C8922434C8922436D
:1022F0008C892243CC8922431A430280828B22F4A8
:1023000000628283098A018230BD70470CB50021CA
:10231000264801910091026842F4803202604FF435
:10232000A063026802F400320092019A521C0192EA
:10233000009A12B9019A9A42F3D10268920333D5F6
:10234000012100911A490A6842F010020A600A68E5
:1023500022F003020A600A6842F002020A60416841
:10236000416041684160416841F480614160416879
:1023700021F47C114160416841F4E8114160016839
:1023800041F08071016001688901FCD5416821F04C
:1023900003014160416841F0020141604168C1F3BD
:1023A00081010229FAD10CBD00910CBD0010024040
:1023B000002002404FF0E0210428086903D020F0FB
:1023C00004000861704740F00400FAE7704700001D
:1023D0000F4810B5016841F00101016041680D4AE4
:1023E0001140416001680C4A11400160016821F40C
:1023F00080210160416821F4FE0141604FF41F011A
:102400008160FFF783FF05494FF00060086010BD51
:10241000001002400000FFF8FFFFF6FE08ED00E0AC
:1024200070B51E4C0121204600F079F801282ED10C
:102430001B494889401C82B24A810878B2FBF0F3FC
:1024400000FB1323012003B948714B78B2FBF3F56D
:1024500003FB152303B9C8718B78B2FBF3F503FBBB
:10246000152303B90872CB78B2FBF3F503FB1523F0
:102470000BB9887148728B89B2FBF3F503FB152306
:1024800003B90871A2F54070E93800D148812046AF
:10249000BDE87040012100F035B8000000040040A4
:1024A0002A0000201FB501210220FFF7A1FE40F203
:1024B000CF20ADF800006320ADF804000020104CE0
:1024C000ADF80200ADF806006946204600F03CF881
:1024D0001D208DF80C0001218DF80D108DF80E10C7
:1024E0008DF80F1003A8FFF703FC012211462046C8
:1024F00000F021F80121204600F007F81FBD000080
:1025000000040040C943018270470029018802D0BD
:1025100041F0010101E021F0010101807047024614
:102520000020138A92890B4202EA010202D0002A9B
:1025300000D001207047002A828901D00A4300E0C0
:102540008A4382817047000030B502881B4B1C4CC7
:1025500098420DD0A0420BD0B0F1804F08D0194D59
:10256000A84205D0184DA84202D0184DA84203D168
:1025700022F070054A882A43154DA84206D0154D11
:10258000A84203D022F44075CA882A4302808A8870
:1025900082850A88028598420AD0A04208D00E4A55
:1025A000904205D00D4A904202D00D4A904201D18E
:1025B000097A01860121818230BD0000002C014092
:1025C000003401400004004000080040000C0040BE
:1025D0000010004000140040004001400044014051
:1025E0000048014070B5314A108802F10403000729
:1025F00000D51888108801062D4812D52B490C31BA
:102600000C8824060DD52B4D04782D5D1D80641C8F
:10261000E4B204704578AC4203D10C8824F0800405
:102620000C80118889061ED51988C2780124224B96
:10263000C9B20025C2B1012A1ED0022A26D0032A1F
:102640002AD0867803EB4616B154521CC2708178AA
:1026500003EB4112C378D278521D9A4203D8C57059
:1026600009B38570447170BDAA29F0D1827803EB5B
:1026700042121170C470EAE7AF2901D0C570E6E7D5
:10268000827803EB4212517002210AE0827803EB58
:1026900042129170032104E0827803EB4212D17060
:1026A0000421C170D3E78470047170BD003801400B
:1026B000040000205C0100205C02002010B5038AA9
:1026C0004FF2FF0213400A884C8822438C88C98845
:1026D0000C4322431A43028210BD0029818902D093
:1026E00041F4005101E021F400518181704710B59F
:1026F000C1F3421301F01F040121A140012B07D0B7
:10270000022B07D01430002A026805D00A4304E0E7
:102710000C30F8E71030F6E78A43026010BD000085
:1027200030B50446008A85B00D464CF6FF7108406E
:10273000E98801432182A1894EF6F3100140A8885F
:102740002A8910436A890A431043A081A08A4FF660
:10275000FF410840A9890143A1826846FFF760FD57
:102760001948844201D1039800E00298A189090424
:1027700000EBC00101EB0010296801D5490000E021
:102780008900B0FBF1F06422B0FBF2F109010B0902
:102790006FF018056B4300EB8300A3891D044FF015
:1027A000320306D503EBC000B0FBF2F000F00700E7
:1027B00005E003EB0010B0FBF2F000F00F0008435F
:1027C000208105B030BD000000380140F0B506465C
:1027D000012189B08803FFF717FD01210420FFF7CD
:1027E00013FD4FF40075ADF8105003248DF812401E
:1027F0001820254F8DF8130004A93846FFF71CFA5E
:102800006800ADF810008DF8124004208DF8130018
:1028100004A93846FFF710FA0020ADF80400ADF81F
:1028200006000096ADF80800ADF818500C21ADF880
:102830001400164DADF80C00ADF80A10ADF81600F6
:10284000ADF81A0069462846FFF76AFF05A9284631
:10285000FFF734FF25208DF81C008DF81D408DF802
:102860001E4001208DF81F0007A8FFF741FA012242
:1028700040F225512846FFF73AFF01212846FFF78D
:102880002CFF09B0F0BD00000008014000380140F5
:1028900010B504460A48094A41785454491C41700D
:1028A00008480088000606D40648012240F2277135
:1028B0000C38FFF71CFF204610BD00005C01002013
:1028C000040000200C38014010B5044605E00D2836
:1028D00000D00A28FFF7DCFF641C20780028F6D11E
:1028E00010BDFEE7490050EAC12018BF04204A0D80
:1028F00018BF40F0010040F2FF72B2EB515F08BF19
:1029000040F00200012808BF0520704710B50022E2
:1029100002212C2001F066FB0222BDE81040114686
:102920002C2001F05FBB10B504466D2240F6060175
:102930002E2001F057FB41F6060114B140F2076268
:1029400001E041F20762BDE810402E2001F02EBBED
:1029500010B5002000F007F800220421BDE8104067
:10296000362001F023BB38B504466B460222002115
:10297000362001F0A3F90F2C2DD2DFE804F0100867
:10298000162C2C2C2C1E3A2C2C454A4F560000207D
:102990008DF800009DF8010000F0FE0019E09DF8A0
:1029A000000000F0FC00401C04E09DF8000000F076
:1029B000FC00801C8DF800000DE09DF8000000F088
:1029C000B30040F048008DF800009DF8010040F091
:1029D00080008DF801006B4601220021362001F0B5
:1029E00009FB0122114636200DF1010301F002FB23
:1029F00038BD9DF8000000F0B3008DF800009DF890
:102A0000010000F07F00E4E79DF8010040F00200C3
:102A1000DFE79DF8010000F0FD00DAE79DF8000017
:102A200000F0CF0040F02000C4E701208DF8000046
:102A30000320CEE710B50E20FFF795FF4FF40042BC
:102A400006212D2001F0B2FA012000F015F9BDE8B1
:102A500010400120FFF787BF10B582B204212D205E
:102A600001F0A4FA032206212D2001F0BBFA002276
:102A700006212D2001F0B6FA0A21BDE810402D20D4
:102A800001F0FDB830380A2801D20120704700203B
:102A9000704700207047000070B5012190B00846D3
:102AA000FFF79AFB01214802FFF7AEFB2C4E3046A0
:102AB000FFF728F82B4800902B4801A90024012596
:102AC00081E831008020CDE904404000069080007C
:102AD0000790202008900002CDE90904694630469D
:102AE000FFF782F801213046FFF701F88DF83050EA
:102AF0000B948DF831504FF46020CDE90D04194C42
:102B00008DF83C504C3C0BA92046FEF77DFF4FF45E
:102B10004040FFF757FB0723012200212046FEF724
:102B200097FF01212046FEF740FF01212046FEF7D6
:102B300032FF2046FEF7C6FF2046FEF755FF00286D
:102B4000FAD12046FEF7CDFF2046FEF738FF0028D9
:102B5000FAD101212046FEF7BAFF10B070BD000087
:102B6000080002404C2401403800002008B5012133
:102B70000420FFF749FB0120ADF8000000208DF88C
:102B8000030069460148FFF757F808BD00080140F7
:102B900010B5FFF7EBFFFFF77FFFBDE8104000F037
:102BA00001B8000038B5124C00212046FEF7E6FEC1
:102BB00040F6666240F6FF712046FEF7E5FE122001
:102BC0008DF8000001218DF8011000208DF8020021
:102BD0008DF803106846FFF78BF801224FF4A071BF
:102BE0002046FEF708FF03492046FEF7BFFE38BD2A
:102BF0000024014000028000002805D04FF0E021B1
:102C00004FF40000C1F80001704710B51720FFF71E
:102C100009F8002805D04FF0E0224FF40001C2F877
:102C2000801110BD10B504466FF00400FFF7C2FB21
:102C30000648E10801EB41020170C2EBC1114FF6F9
:102C4000FF7202EAC101418010BD000000000020B7
:102C50000849498848434FF0E021486100208861D5
:102C600001220A610A69D30701D0D203FAD50861AB
:102C700088617047000000200849097848434FF0F8
:102C8000E02148610020886101220A610A69D307B6
:102C900001D0D203FAD50861886170470000002096
:102CA000AD2802D10148C06800477047E400002009
:102CB0002DE9F047224C2079A178401AC6B201F0E4
:102CC000F7F9054601F0F4F9FF28FBD11C4F00206D
:102CD00001211C37DFF86C80F13D4FF00209052D12
:102CE0002CD2DFE805F0030D181A1A0016B120796E
:102CF000401E03E0A07868B1401EA070207109E07A
:102D0000032E04D1A078032804D2401CA07020799F
:102D1000401CF3E72170BDE8F0872070FFF724F82E
:102D2000207900EB400007EB8000806801F06EFB2B
:102D300008B9C4F80C8084F80190ECE72070EAE749
:102D4000E4000020392E00082DE9FC5F304F0025FB
:102D50003878002859D007F1100401262681009602
:102D6000A079E37900EB4000C0B22AA20021FFF76E
:102D7000E5F9B246AB46B94604F10C08A4F808A040
:102D8000CDF800A0E3796E1C03FB06F0C1B25746F4
:102D900023A20020FFF7D2F9207ACDE9007099F83C
:102DA0000200E379284400EB400103FB06F018F829
:102DB0002120C1B24F460020FFF762F9207A00902F
:102DC000E3791CA203FB06F0C1B2A079FFF7B6F9C4
:102DD0003979B878091AA94201D1A4F808B0217A42
:102DE0000091284400EB400108EB8100E379426840
:102DF00003FB06F0C1B2A0794006000EFFF79EF972
:102E0000F5B2042DBAD389F800B0BDE8FC9F0000EC
:102E1000E40000204150502043686F6F736500004C
:102E200020202020202020202020202020202020A2
:102E3000000000002E00000010B501F039F9F13853
:102E400003280ED2DFE800F00D0D0200054801F066
:102E5000DDFA002805D105480349C1600121417010
:102E6000017010BD492D0008B12C0008E4000020BD
:102E70000748002107228170C27001710121064AB2
:102E8000417004491160054981600549C16070477E
:102E9000E4000020A12C00083C000020492D00087F
:102EA000B12C000810B500F063F9064C0020C4F8FE
:102EB000A001642004F5D074FFF7CAFE0120206051
:102EC000002010BD00802142F8B501210C20FFF741
:102ED0009BF91025ADF80050204E8DF803500324C7
:102EE0008DF8024069463046FEF7A6FE4020ADF858
:102EF000000000208DF80300194F8DF8024069464C
:102F00003846FEF799FE8020ADF800008DF803509A
:102F10008DF8024069463846FEF78EFE2801ADF86E
:102F2000000014208DF803008DF8024069463846F1
:102F3000FEF782FE6801ADF8000048208DF803001E
:102F400069463846FEF778FE10213046FEF7C7FE88
:102F500080213846FEF7C3FEF8BD0000000801409E
:102F6000000C0140002588B02E46CDE90255A84648
:102F70002F4665A16848FDF741FB01240C23664AF2
:102F800003210A200094FFF7D9F800F0E7F80020A9
:102F900000F0FEFD401C31D0A1460C235FA20F21A2
:102FA0001E200094FFF7CAF800F0CEF85E4800F04B
:102FB000BBFC594D7F3D002001462954401C7F2811
:102FC000FBDB002000F0B4FE002421460F2000F0BF
:102FD00056FE02900C2355A21E21CDF80090002031
:102FE000FFF7ACF80C231E212120029AFFF732F8DC
:102FF0004FF47A7BDFF83CA1029822E00C234EA22A
:103000000F211E200094FFF799F8FEE7641CA4B27C
:103010005C4511D903980221401C80B2CDE900190A
:1030200003900C230F215C20039AFFF729F800F08E
:1030300095F800F089F807E000210F2000F01FFE4E
:10304000029010EA0A0FE1D00298400459D50021FD
:10305000102000F014FEC0F30901334840387F29E6
:10306000418047D882462C4800227F3800F043FE3A
:1030700000243BE0052C03DDA01FC0B2012101E0CC
:10308000E0B2002101EB4101282303EB810100EBB9
:10309000C0000A2303EB40002A5DC0B20C23FEF7F8
:1030A000D9FF6978761CA1EB0800B6B2012801DDD2
:1030B0007F1CBFB2632E16D964204743B7FBF6F0DE
:1030C00082B20220CDE900094E460C231E21542075
:1030D000FEF7D6FF0C2325221E2174200096FEF752
:1030E00069FF0026374695F80180641CBAF8020093
:1030F0008442BFDB4FF4804200210F2000F063FFC9
:1031000059E7104AF8E7000053494D504C4520520A
:10311000582076312E3200001B070020436F6E6668
:103120006967204F4B000000800000207374613AF3
:103130000000000000D00524494E49542046414972
:103140004C4544000090052402490820888102482B
:10315000FFF7BFB88807002000300140024928204F
:1031600088810248FFF7B5B8880700200030014089
:1031700038B501210803FFF747F801210420FFF7C4
:1031800043F8E020ADF8000018208DF8030003207C
:103190008DF8020069461048FEF74EFD0F480021E9
:1031A0004FF48272018042808180C18001814FF49E
:1031B0000072428110228281C18107210182084C64
:1031C00001462046FFF785F801212046FFF770F8F9
:1031D000FFF77AFE38BD0000000801408807002094
:1031E0000030014088B0002501950295039582A129
:1031F00084480495FDF702FA4820FFF713FD4FF4C9
:10320000E130FFF7E3FA6420FFF722FDFEF752FEFC
:103210006420FFF71DFD012400213F237F22084683
:103220000094FEF7DBFD01213E237E220846009537
:10323000FEF7D4FD0C2374A2042103200094FEF7B2
:103240007DFFFFF72FFEFEF78FFD0C236D4A032154
:1032500006200094FEF772FF6A48FDF73FF86EA063
:10326000FDF748F8FFF77AFF012000F091FC401CC1
:1032700068D0A0460C2369A20F211E200094FEF7FF
:103280005DFF69A0FDF736F8FFF75EFF032000F051
:1032900089FD694800F048FB44F23404204600F000
:1032A000CCFD204600F00AFE8C2000F0B5FD40F673
:1032B000340000F0C9FD604F604E0C37A7F1580490
:1032C00080222078B87000210F2000F07CFE5A493F
:1032D00000220C310C2000F0ACFE012200210C2059
:1032E00000F0B8FE022000F019FE00210F2000F0CF
:1032F000C6FC30426060F8D02078401C2070A08866
:1033000040046CD54EA0FCF7F5FF4FF4804200213D
:103310000F2000F058FE0021102000F0B0FC00F05B
:103320007F01142904D8374800221E3000F0E3FC46
:10333000344841491E300A2285701831FDF732F9B0
:1033400040B153E00C2344A20F211E200094FEF74D
:10335000F5FEFEE700F0E8FC824600F0DBFC81466B
:10336000284805A9283000F0F1FF264806A92C308E
:1033700000F0ECFFDDE90520A9EB0A01801A081A2C
:1033800001F068F94FF0FF3201F0F2FB354A364B9D
:1033900001F0C6F94FF09852344BC4E9020101F034
:1033A000BFF9C4E904010C2331A21E211820CDF875
:1033B0000080FEF7C3FED4E9042330A101A8FCF786
:1033C000A5FF0C2301AA30212420CDF80080FEF7B0
:1033D000B5FED4E904232BA0FCF78CFF06E02E4AAF
:1033E00000210F2000F0EFFD00F0C9FC4FF4FA704F
:1033F000FFF72EFC64E70000535320545752204936
:103400004E4954001B07002044574D3130303020C6
:1034100074657374000000000D0A0000436F6E664F
:103420006967204F4B000000436F6E666967204F4D
:103430004B20210D0A0000008C00002000D0272422
:103440005258206672616D6520676F6F642E202070
:103450002020202000000000494E495420464149C8
:103460004C454400FA48CE3B1835B13D19DDB14119
:1034700064697374616E63653A00000025332E320F
:10348000666D000044697374616E63653A2025338C
:103490002E3266206D0D0A00009027248AB095A177
:1034A0009748FDF7ABF8FEF75FFC012400210C23E1
:1034B000934A08460094FEF741FE9148FCF70EFF40
:1034C00090A0FCF717FFFFF749FE012000F060FB1A
:1034D000401C7DD00C23A0468BA219461E200094D0
:1034E000FEF72CFE8BA0FCF705FFFFF72DFE032057
:1034F00000F058FC8B4800F017FA44F234042046E0
:1035000000F09BFC204600F0D9FC864C864F4FF023
:10351000000B783C002000F00BFC00210F2000F095
:10352000AEFB38426060F8D0A088400479D54FF4F3
:10353000804200210F2000F046FD0021102000F005
:103540009EFBC0F30901B1F5806F04D86C480022DE
:103550001E3000F0D0FB6A4969481E31D94681F817
:1035600002B070490A220C311E30FDF71BF800280A
:10357000D0D100F089FD4FF0A5728518C4E906018D
:1035800041F10006280A40EA0660824600F004FC89
:103590002AF00100010E000244F23402801841F1C9
:1035A0000001C4E908015F48D4E90623223000F095
:1035B000DAFE5C48D4E90823263000F0D4FE5949ED
:1035C0002078183100228870142000F032FD00E0CD
:1035D00069E001220021142000F03CFD012000F0F0
:1035E0009DFC089001A800F099FB9DF804109DF83F
:1035F00005209DF807C001EB02219DF806209DF8EB
:103600000800120402EB0C62114411EB090AD4E920
:10361000062349EB000945A0FCF76CFE33462A4619
:1036200000E05FE048A0FCF765FE52464B464DA027
:10363000FCF760FED4E9062351A103A8FCF766FE5F
:103640000C2303AA18210020CDF80080FEF776FD98
:1036500033462A464DA103A8FCF758FE0C2303AAC3
:1036600024210020CDF80080FEF768FD52464B462D
:1036700049A103A8FCF74AFE0C2303AA302100202D
:10368000CDF80080FEF75AFD08984FF00C03CDF8F6
:10369000008080B143A20C210020FEF74FFD45A021
:1036A000FCF728FE36E70C2347A219461E2000949B
:1036B000FEF744FDFEE747A20C210020FEF73EFD89
:1036C00048A0FCF717FE00210F2000F0D8FA0006F2
:1036D000F9D5802200210F2000F075FC2078401CD5
:1036E000207017E7444A00210F2000F06CFC00F026
:1036F00046FB0FE753532054575220524553500076
:103700001B0700200D0A0000436F6E666967204F9B
:103710004B000000436F6E666967204F4B20210D00
:103720000A000000B800002000D005245278207460
:10373000696D657374616D70202D2D3E2030782584
:103740006C6C582E0D0A0000646C7964207478202B
:1037500074696D65202D2D3E203078256C6C582EB7
:103760000D0A000053797374656D2074696D6520CE
:10377000202D2D3E203078256C6C582E0D0A00002F
:1037800074733A3078256C6C58000000646C3A30E1
:1037900078256C6C58000000746D3A3078256C6C9C
:1037A0005800000044656C61796564207478206677
:1037B00061696C0064656C61796564207478206669
:1037C00061696C2E0D0A0000494E4954204641495A
:1037D0004C45440044656C61796564207478206FC1
:1037E0006B20210064656C61796564207478206FBA
:1037F0006B20210D0A000000009005241CB500205C
:10380000064601903AA13E48FCF7F8FE01240C233D
:103810003B4A03210A200094FEF790FCFFF79EFC30
:10382000002000F0B5F9401C4FF00C03009431D09B
:1038300034A20F211E20FEF781FCFFF785FC3448DF
:1038400000F072F8012000F021FB314900220C3118
:103850000C2000F0EEFB012200210C2000F0FAFB0E
:10386000002000F05BFB002529460F2000F007FA3E
:10387000CDE900400C2327A21E210020FEF75EFCAC
:103880000C231E212120019AFEF7E4FB4FF47A77E6
:1038900001981CE021A20F211E20FEF74FFCFEE73D
:1038A0006D1CADB2BD420DD90220CDE90004761CDD
:1038B000B6B20C2332460F215C20FEF7E1FBFFF786
:1038C0004DFC06E000210F2000F0D9F90190000620
:1038D000E6D5802200210F2000F075FB0A20FFF7BB
:1038E000B7F90B490C314878401C4870ADE700002F
:1038F00053494D504C452054582076312E3200000B
:103900001B070020436F6E666967204F4B00000065
:10391000680000207374613A00000000494E495469
:10392000204641494C4544002DE9F05F04460578A6
:10393000407976494FF00009C84631F81070607838
:10394000401EC6B2042D75D0072D73D000208246CC
:103950006F48E2794169002A6ED021F4800141610B
:10396000217A017241694FF4403321F440324261BF
:10397000217A834603EA01410A434261002104207F
:1039800000F021FB3A4642F604012E2000F00EFB27
:103990003046FEF7C8FF5F4F5F49785D51F8202041
:1039A00007212B2000F00FFB785D5C490A5C0B219E
:1039B0002B2000F017FB5A49282011F80A200B2170
:1039C00000F010FB785D574951F820200C21282089
:1039D00000F0F9FAE079544901EB8000A17930F860
:1039E00011200221272000F0E1FA5048042130F88C
:1039F0001620272000F0DAFAE07910B3A078042826
:103A000025D020220621272000F0D0FA28222621C6
:103A1000272000F0E7FA4648E17800EB061050F85E
:103A200021200821272000F0CEFA6089B0B118E0EB
:103A300000E001E001208AE741F48001FF084161D4
:103A40008EE764220621272000F0B0FAE3E7102277
:103A50000621272000F0AAFA1022D8E741F24100FF
:103A6000608182B22021272000F0A0FA314F0C2182
:103A700023203A6800F0A7FA07EB46000421828869
:103A8000232000F093FAA07950B1E0792A490A5C2A
:103A90000021212000F0A6FA4FF003094FF00108A1
:103AA00005F00F00290740EA116062784FF44021C9
:103AB00001EA824108434FF4401202EA09510843E7
:103AC0004FF4003202EA4841084321794FF0F8628E
:103AD00002EA81510843617940EAC16200211F2056
:103AE00000F071FAA07861780843E179000440EAB7
:103AF000413200210820CBF80C2000F064FABDE828
:103B0000F05F422200210D2000F06CBA085E000830
:103B1000500700208C5D0008AC5D0008C45D000803
:103B2000CA5D0008945D0008D85D0008E45D0008E7
:103B3000E85D0008CC5D0008D45D000870B5002188
:103B40000E2000F09CF80446FFF75FF805460022BF
:103B500011460E2000F037FA402200210D2000F01F
:103B600041FA094A00210F2000F02DFA00F00AFA6C
:103B7000224600210E2000F026FA2846FFF73CF8E6
:103B800002490020887670BDF8FF272450070020E6
:103B900070B5314C002105466174A1762183A16284
:103BA000E1622163616300F085F82C49884201D00D
:103BB000881770BD00F090F90020FEF7D4FE0422B3
:103BC0000021242000F00EFA1E20FEF745FF86B2E9
:103BD000300A60720420FEF73FFF10F0FF0F08D09C
:103BE000022212212D2000F0FDF9208B40F480509C
:103BF00020830620FEF730FF20600720FEF72CFF11
:103C0000606016F01F00207401D110202074C0B233
:103C100000F059F9E80706D0FEF70CFF208B40F4BE
:103C20000060208309E00521362000F019F820F417
:103C300000720521362000F0B9F90120FEF793FE4D
:103C400000220A212C2000F0CDF90021042000F0F0
:103C500016F86061002070BD500700203001CADEF8
:103C600008B589B280B26B46022200F027F89DF8B1
:103C700000009DF8011000EB012080B208BD38B5AE
:103C8000002489B280B26B46042200F017F80321A9
:103C90006846425C491E02EB0424FAD5204638BD32
:103CA00008B589B280B26B46012200F007F89DF892
:103CB000000008BD00210846FFF7E1BF08B551B17B
:103CC00040F040008DF80000C8B27F2907D88DF879
:103CD000010002200BE08DF80000012007E040F019
:103CE00080008DF80100C8098DF8020003206946A4
:103CF00000F0FAFA08BD30B414460A4621460346DD
:103D000030BC1120FFF7DABF034605220021152041
:103D1000FFF7D4BF00211520FFF7B1BF03460522EE
:103D200000210620FFF7CABF00211720FFF7A7BF19
:103D300070B50446400701D400F024F94FF48075B3
:103D40002A46E00701D04FF4407200210D2000F018
:103D50002DF9E00711D003210F20FFF7A1FF000785
:103D60000BD5FFF7EBFEA00704D42A4600210D2057
:103D700000F01CF94FF0FF3070BD002070BD10B591
:103D8000E0220321362000F02DF9F0220321BDE8C6
:103D90001040362000F026B9024601210A2000F02A
:103DA00012B9000070B50446C0074FF000014FF093
:103DB000260026D0FFF763FF20F4705040F4A05295
:103DC0000021262000F0FFF800213620FFF757FFE2
:103DD00040F404020021362000F0F5F84FF4887515
:103DE000A00700D50B4D28212A46362000F0EBF81D
:103DF000A0070DD52821AAB23620BDE8704000F0FA
:103E0000E2B8FFF73CFF20F4705200212620F4E7CF
:103E100070BD000010010F0010B5044600211A20EB
:103E2000FFF72DFFC4F313026FF3130002430021C9
:103E3000BDE810401A2000F0C6B8024641F6040161
:103E40002E2000F0B3B8000070B506460321042010
:103E5000FFF726FF0C4C054656B1324600210C20D8
:103E600000F0A4F8606945F0100240F0805004E0D2
:103E700020F01002606920F080506061BDE8704061
:103E80000321042000F0AEB85007002010B504460E
:103E900000210420FFF7F3FE0749486114B120F424
:103EA000802001E040F48020486102460021BDE806
:103EB0001040042000F087B850070020024600217F
:103EC000182000F073B800F01F0040F060020E21CF
:103ED0002B2000F087B8000010B5FEF739FD002256
:103EE00011462C2000F062F8002206212C2000F060
:103EF00079F8FEF70BFD00220321362000F072F85E
:103F00006420FEF7B9FEF0220321362000F06AF8A3
:103F100001490020887610BD500700202DE9F041AE
:103F200000250646164F2C46800707D580242246DA
:103F300000210D2000F056F80120B876F00715D0CA
:103F400044F0060200210D2000F04CF803210F2060
:103F5000FFF786FE10F4816F0ED0402200210D2065
:103F600000F040F80020B876451E05E044F002025B
:103F700000210D2000F036F82846BDE8F081000051
:103F80005007002010B503210F20FFF789FE00F035
:103F9000800100F04000B1EB400F06D00122032168
:103FA000BDE810400D2000F01DB810BD08B589B265
:103FB0008DF80020120A8DF8012080B26B46022293
:103FC00000F018F808BD38B500236C46E254120A18
:103FD0005B1C042BFADB89B280B22346042200F07A
:103FE00009F838BD07B589B280B202AB012200F0F2
:103FF00001F80EBD08B551B140F0C0008DF80000C9
:10400000C8B27F2909D88DF8010002200DE040F0E8
:1040100080008DF80000012007E040F080008DF85E
:104020000100C8098DF802000320694600F0FAF982
:1040300008BD10B514460244B2F5806F07D80B4690
:10404000821E21460920FFF7D5FF002010BD4FF04A
:10405000FF3010BD890541EAC2320449C9680143F5
:104060000A4300210820FFF7AEBF000050070020E0
:1040700004490A885206FCD5024AC1B2121D1180B9
:1040800070470000003801407CB500242546684692
:10409000FFF73AFE042069462D0245EA1465220224
:1040A0000C5C1443401EF7D5204629467CBD000019
:1040B0002DE9F05F4F4C4B4E4FF0663B4A4FDFF817
:1040C0002C81DFF82C914C4DDFF830A1208800F0D6
:1040D000D8FA0022334600F02DFC00222B4600F0D7
:1040E000E3FA0ED2208800F0CCFA0022334600F02A
:1040F00015FC00222B4600F0D7FA02D2F120BDE8D1
:10410000F09F208800F0BDFA5E465A463B4600F01C
:1041100011FC00222B4600F0C7FA0DD2208800F0D7
:10412000B0FA32463B4600F0F9FB00222B4600F085
:10413000BBFA01D2F220E2E7208800F0A2FA0022C6
:104140004646434600F0F6FB00222B4600F0ACFA50
:104150000DD2208800F095FA0022334600F0DEFBF5
:1041600000222B4600F0A0FA01D2F320C7E72088F6
:1041700000F087FA224E4F4632464B4600F0DAFBFB
:1041800000222B4600F090FA0DD2208800F079FA38
:1041900032463B4600F0C2FB00222B4600F084FA78
:1041A00001D2F420ABE7208800F06BFA154F564699
:1041B00052463B4600F0BEFB00222B4600F074FA4C
:1041C0000DD2208800F05DFA32463B4600F0A6FB97
:1041D00000222B4600F068FA01D2F5208FE7FF207D
:1041E0008DE700000000A0406666AA400000A840DD
:1041F0006CE7AB403800002000004940F2D24D622D
:104200008195438B1058A54008B54820FEF70AFD5C
:10421000FDF76AFD4FF4E130FEF7D8FAFEF742F9F8
:10422000FEF7B6FC6420FEF713FDFDF743FE20A069
:10423000FEF74AFB012400213F237F220846009419
:10424000FDF7CCFD0020012100903E237E22084690
:10425000FDF7C4FD0C2319A2042103200094FDF7EF
:104260006DFF0C2319A2102103200094FDF766FFB7
:104270000C2318A21C2103200094FDF75FFF0C23E0
:1042800016A2282103200094FDF758FF4FF4FA707E
:10429000FEF7DEFCFEF706FEFDF766FDFEF7E8FD25
:1042A0001048006800F070F800F086F8FCE70000A5
:1042B0007561727420746573740D0A0044574D3132
:1042C000303030207465737400000000206465761F
:1042D0003A000000706172743A000000206C6F7444
:1042E0003A000000EC0000202DE9F047DFF8549080
:1042F000884607461D461646002410214846FDF70D
:10430000ECFC114809E000BF18F804108181018914
:10431000C907FCD081892970641CBC42F4DB0021F0
:104320000A4606E082810389DB07FCD083896B544F
:10433000491CB142F6D310214846FDF7D0FC0020BD
:10434000BDE8F087000801400030014010B50022B0
:104350000A60835CD400A3400C68521C23440B60A9
:10436000042AF6DB10BD2DE9F04115461E4607462E
:104370000024E20028463146FBF79DFF3855641CB7
:10438000042CF6DBBDE8F08110B1034908607047EA
:1043900002A0FBF7AFBF0000540100206E6F206445
:1043A0006566756C74206170702068617320736538
:1043B000742E0D0A00000000044C216811B16068E1
:1043C0008847FAE702A0FBF795FFF6E754010020C3
:1043D0006E6F2061707020746F2072756E2C207368
:1043E0007461636B206865726520616E642077611B
:1043F00069746520666F722061707020746F206927
:104400006E736572742E0D0A00000000002110B159
:10441000034A106001E04FF0FF310846704700008A
:10442000540100202DE9F047DFF8509088460646F9
:104430001F461546002410214846FDF74EFC104843
:1044400008E000BF18F8041081810189C907FCD079
:104450008189641CB442F5DB002106E07A5C82812C
:104460000289D207FCD08289491CA942F6D31021C7
:104470004846FDF734FC0020BDE8F0870008014005
:104480000030014010B500290AD00878002807D074
:1044900005487844FCF754FE002801D0002010BDE8
:1044A0000248784410BD0000DE1A0000D61A000051
:1044B00010B500290AD00878002807D005487844AC
:1044C000FCF73EFE002801D0002010BD02487844D1
:1044D00010BD0000CE1A0000C61A000010B591EA07
:1044E000030F48BF83F0004300F12C82841A71EB64
:1044F000030C05D2121943EB0C03001B61EB0C01FA
:10450000DFF824E14FEA1154A4EB135C1EEA430FD9
:1045100018BF9EEA445F73D023EA0E03DCF1200E3D
:1045200021EA045143F4801332D322FA0CFE10EB3B
:104530000E0023FA0CFE41EB0E01CCF1200E03FA23
:104540000EFE10EB0E0051F10001B1F5801FCCF111
:10455000200E32D201EB045112FA0EF2BDE81040E7
:1045600058BF7047401C38BF5FEA420218BF70470F
:10457000002814BF20F0010041F100014FEA41037F
:1045800013F5001F38BF7047A1F1C04100F0C0B95A
:10459000012A43EB0302ACF1200CDCF11F0E32BF09
:1045A0004FF0000E23FA0CF310EB030041EB045123
:1045B000B4EB115FD0D0A1EB045101F58011490893
:1045C0005FEA300001EB04510ED350F1000038BF18
:1045D00012FA0EFE08D1BDE81040C9E7401C38BFF2
:1045E0005FEA4202CAD1C3E7BDE810404FEA410387
:1045F00013F5001F38BF7047A1F1C04100F088B922
:104600009EEA445F08D011EA5E0FBDE8104004BF87
:1046100001F0004100207047BDE8104070B500F087
:1046200029F900BF64FBBE3E0000E0FF02494FF0E5
:10463000000000F06BBA00BF0000F87F491058BFBF
:10464000C1F140415B1058BFC3F140438B42EFF3CF
:104650000080704710F0004248BF4042B0FA80F33B
:1046600010FA03F10AD0C3F11D0303F580634FEA8A
:10467000415002EB035202EBD12170474FF0000092
:104680007047B0FA80F310FA03F10AD0C3F11D03AA
:1046900003F580634FEA41504FEA035202EBD12108
:1046A00070474FF00000704751EA030C17D41CF517
:1046B000801F58BFBCF5801F00F10680994218BFCB
:1046C000704708BF9042704707D711F5801F58BF49
:1046D00013F5801F19D499427047894270471CF521
:1046E000801F08D5BCF5801FF7D58B4218BF7047D7
:1046F00008BF824270474FF4001C1CEB410F38BFCB
:104700001CEB430F01D28B42704770B500F0B2F83A
:10471000922449004FF000514FF08053FFF78EBFB5
:10472000DFF848C170B51CEA111E1EBF1CEA131544
:104730009EEA0C0F95EA0C0F00F06F8081EA0304EB
:1047400023EA4C134EEAD47E21EA4C1141F4801145
:1047500043F48013AE44A1FB024CA0FB0365AEF111
:104760007F7E361955EB0C05A1FB034C4CF1000381
:10477000A0FB021C16EB0C06654153F10003094235
:1047800018BF46F0010613F4007F0BD14FEA033146
:104790004FEA0530340341EA155140EA16506FF0F4
:1047A00003020AE04FEAC3214FEAC520F40241EABE
:1047B000555140EA56506FF0020202EB2E4201EBD7
:1047C000025585EACE710AD05FEA440C18BF24F086
:1047D000004450F1000041F1000120EAD47040F2A1
:1047E000FE7C624500D270BDA84214BF4FF08044E9
:1047F0004FF04044002E08BF0024BEF1806FA8BFD8
:10480000A1F1C041BDE8704080F282804FF000000D
:1048100001F1C04101F0004170479EEA0C0F0CEA23
:10482000131518BF95EA0C0F06D04FF0000081EA6F
:10483000030E0EF0004170BD00F01CF88900013E2F
:1048400000F007B800F009B84FEA430C5FEA5C5C7F
:1048500008D081EA030100F05BB84FEA410C5FEA3F
:104860005C5CF6D14FF00000014970470000FF0783
:104870000000F87F0EF1020E2EF0030E5EF8046BBE
:10488000364205D4012A43EB030515F5001F12D863
:10489000012841EB010C1CF5001F0CD80ED14FEA8A
:1048A000D17C15F5001F0CEB4C0C0CF1020C08BF71
:1048B0004CEBD37C04E04FF0080C01E04FEAD37CD2
:1048C0000CEB4C0526FA05F606F00706B6F1040CCB
:1048D00006D20EEB860CBDE870404CF0010C604730
:1048E000DFE80CF0090B02024FF000414FF000002E
:1048F000A1F5002170BD19461046012851EB0104B5
:1049000018BFD4F5001484BF002001F0004170BD31
:104910000808A0F500114FEA3101704791EA030F32
:1049200010B581F000413FF5E1AD83F0004300F0A8
:1049300009B8000010B591EA030F48BF83F00043A7
:104940003FF5D4AD841A71EB030C07D212198CF029
:10495000004C43EB0C03001B61EB0C01DFF8A4E1FE
:104960004FEA1154A4EB135C1EEA430F18BF9EEAF2
:10497000445F00F0B08023EA6E03524221EA045102
:10498000C3EB6E0338BF5B1EDCF1200E25D322FA89
:104990000CFE10EB0E0043FA0CFE41EB0E01CCF1C5
:1049A000200E03FA0EFE10EB0E0051F10001CCF1C7
:1049B000200E29D412FA0EF201EB0451BDE810408A
:1049C00058BF7047401C1CBFB2F1004F7047002811
:1049D0000CBF491C20F00100704712EB020E43EBA4
:1049E000030218BF4FF0010E4EEA4202ACF1200C58
:1049F000DCF11E0E54D943FA0CFE10EB0E0051F1FF
:104A0000FF31CCF11E0ED5D50EF1010E12FA0EFEBD
:104A1000404141EB010101EB445C5FEA5C5C10D971
:104A200010EBDE7001EB045138BFBEF1004FBDE862
:104A3000104018BF704700280CBF491C20F001002F
:104A4000704730D24FEAD42C11F5001124F40064E1
:104A50001BD0B1FA81F20B3AA41AA41ED2F12003A2
:104A6000914030FA03F31943904001EBCC71002CD4
:104A700001EB0451BDE81040A8BF704701F1C041EF
:104A80004FF0000001F000417047B0FA80F310FAD7
:104A900003F100D110BDE41A173C4805C90AE4E748
:104AA00001EB045110BD491001EB0451BDE8104069
:104AB0004FEA300002E04FF0000170474A0008BFA3
:104AC0000042F8D0B2F5001F28BF704701F0004146
:104AD0004FF0000070479EEA445F07D011EA5E0F76
:104AE000BDE8104004BF002100207047BDE8104021
:104AF00070B5FFF7BFFE00BF40DFF63E83F0004118
:104B0000104670470000E0FFFBF75BBF0CF00F039F
:104B1000092B08BF082000F059800A2B0BD0082B66
:104B200018BF704708BF1CF0400F0AD04FF00000BC
:104B30004FF0000170471CF0400F18BF4FF00040CD
:104B400070471CF0100F08D020F0704300F07F4237
:104B500042EAD3014FEA4370704700F0604021F011
:104B60007F4242EA000201F07F4040EA72707047E3
:104B70004FF0FF0C4CF4E06C1CEA11531CBF9CEA94
:104B8000030C9445C2BFDA4201EB02517047002B7F
:104B90000DD0BCF1000F0FD0002A01F00041A4BFDE
:104BA00041F0E04141F07F614FF00000704701F0BB
:104BB00000414FF00000704750EA01334FF09B0C6A
:104BC00018BF4CF0806C7FF431AD70471CF4801F2F
:104BD00011D01CF4E02F03D06FEACC3149007047AC
:104BE0004FF04050EFF3008222F0704242EA0002A0
:104BF00082F3008870474FF000007047FFFFFFFF0F
:104C0000FFFFFFFFFFFFFFFFFFFFFFFFFFFFFFFFB4
:104C1000FFFFFFFFFFFFFFFFFFFFFFFFFFFFFFFFA4
:104C2000FFFFFFFFFFFFFFFFFFFFFFFFFFFFFFFF94
:104C3000FFFFFFFFFFFFFFFFFFFFFFFFFFFFFFFF84
:104C4000FFFFFFFFFFFFFFFFFFFFFFFFFFFFFFFF74
:104C5000FFFFFFFFFFFFFFFFFFFFFFFFFFFFFFFF64
:104C6000FFFFFFFFFFFFFFFFFFFFFFFFFFFFFFFF54
:104C7000FFFFFFFFFFFFFFFFFFFFFFFFFFFFFFFF44
:104C8000FFFFFFFFFFFFFFFFFFFFFFFFFFFFFFFF34
:104C9000FFFFFFFFFFFFFFFFFFFFFFFFFFFFFFFF24
:104CA000FFFFFFFFFFFFFFFFFFFFFFFFFFFFFFFF14
:104CB000FFFFFFFFFFFFFFFFFFFFFFFFFFFFFFFF04
:104CC000FFFFFFFFFFFFFFFFFFFFFFFFFFFFFFFFF4
:104CD000FFFFFFFFFFFFFFFFFFFFFFFFFFFFFFFFE4
:104CE000FFFFFFFFFFFFFFFFFFFFFFFFFFFFFFFFD4
:104CF000FFFFFFFFFFFFFFFFFFFFFFFFFFFFFFFFC4
:104D0000FFFFFFFFFF7F1F1F1F1F1F1F1F1F1F1FF3
:104D10001F1F1F1F1F1F1F1F1F1F3F7FFFFFFFFFA3
:104D2000FFFFFFFFFFFFFFFFFFFFFFFFFFFFFFFF93
:104D3000FFFFFFFFFFFFFFFFFFFFFFFFFFFFFFFF83
:104D4000FFFFFFFFFFFFFFFFFFFFFFFFFFFFFFFF73
:104D5000FFFFFFFFFFFFFFFFFFFFFFFFFFFFFFFF63
:104D6000FFFFFFFFFFFFFFFFFFFFFFFFFFFFFFFF53
:104D7000FFFFFFFFFFFFFFFFFFFFFFFFFFFFFFFF43
:104D80007F3F0F030100000000000000008098B882
:104D9000B0BCBDB8303838000000000001070F3F3C
:104DA000FFFFFFFFFFFFFFFFFFFF7F3F27232139AB
:104DB0003F2F232131272361F9EFE77B2121233F77
:104DC00027233139232131212171EFE3613133333D
:104DD000313B2F232121393F2763E1EB63633327E5
:104DE00023233B2F23233B3F3F3F7FFFFFFF3F3FDB
:104DF0003F3F3F3F3F3F3F3F3FFFFFFFFF9F0701D9
:104E00000000000000CEDAF8CC0000FCFFFFFFEF4E
:104E1000E7FFFFFFFFEFE7FFFF00000000000000DB
:104E2000000307DFFFFFDFC7C3C0C0C0E0F0C0C39F
:104E3000C3C1C0C0D0F8FCFEC7C1C0C0C0C0C0DC88
:104E4000CEC7C1C0C0C0E0F0DCCFC3C0C0C0C0C0CE
:104E5000D8C9C3C1C0C0E0F0FCEFC3C1C0C0C0C06E
:104E6000C8CECFC3C0C0C0E0F0F8FEFFFFCFC3C1C3
:104E7000C0C0C0F0FCFEFFFFFFFFFFFFFFFFFFFC15
:104E8000F0C0800000001FFFFFFCE0E7E7EFEFEF5E
:104E9000EFEFEFEFEFEFEFEFE7E0E0C0C08080E093
:104EA000F0FCFFFFFFFFFFFFFFFFFFFFFFFFFFFF24
:104EB000FFFFFFFFFFFFFFFFFFFFFFFFFFFFFFFF02
:104EC000FFF703F4B681FB93FFFE00FFFF1FD0D670
:104ED00016F616D6D01FFFFF9B00E9FF01FCFC0071
:104EE000FF7FFFFF28960841E748863239FFFFFF22
:104EF000FF7F9FE0C73F7FFFFFFFFFFFFFFFFFFF39
:104F0000FFFFFFFEF8F0C0C0C1C1E1FFFFFFFFFFE0
:104F1000FFFFFFFFFFFFFFFFFFFFFFFFFFFFFFFFA1
:104F2000FFFFFFFFFFFFFFFFFFFFFFFFFFFFFFFF91
:104F3000FFFFFFFFFFFFFFFFFFFFFFFFFFFFFFFF81
:104F4000FFFFFCFDFDFDFEFFFDFCFEFFFFFCFDFC89
:104F5000FCFFFCFCFDFCFFFFFFFCFFFCFEFFFFFE77
:104F6000FCFEFFFFFCFDFDFCFFFCFDFDFCFFFFFC6C
:104F7000FEFFFFFFFFFFFEFEFFFFFFFFFFFFFFFF44
:104F8000FFFFFFFFFFFFFFFFFFFFFFFFFFFFFFFF31
:104F9000FFFFFFFFFFFFFFFFFFFFFFFFFFFFFFFF21
:104FA000FFFFFFFFFFFFFFFFFFFFFFFFFFFFFFFF11
:104FB000FFFFFFFFFFFFFFFFFFFFFFFFFFFFFFFF01
:104FC000FFFFFFFFFFFFFFFFFFFFFFFFFFFFFFFFF1
:104FD000FFFFFFFFFFFFFFFFFFFFFFFFFFFFFFFFE1
:104FE000FFFFFFFFFFFFFFFFFFFFFFFFFFFFFFFFD1
:104FF000FFFFFFFFFFFFFFFFFFFFFFFF7F7F7F7FC1
:105000007F7F7F7F7F7F7F7F7F7F7F7F7F7F7F7FB0
:105010007F7F7F7F7F7F7F7F7F7F7F7F7F7F7F7FA0
:105020007F7F7F7F7F7F7F7F7F7F7F7F7F7F7F7F90
:105030007F7F7F7F7F7F7F7F7F7F7F7F7F7F7F7F80
:105040007F7F7F7F7F7F7F7F7F7F7F7F7F7F7F7F70
:105050007F7F7F7F7F7F7F7F7F7F7F7F7F7F7F7F60
:105060007F7F7F7F7F7F7F7F7F7F7F7F7F7F7F7F50
:105070007F7F7F7F7F7F7F7F7F7F7F7F000000003C
:1050800000000004040404040004050505000000F9
:10509000000A0A1F0A1F0A0A041E050E140F040341
:1050A000130804021918060905021509160302015E
:1050B00000000000040201010102040102040404D2
:1050C0000201000A041F040A000004041F04040073
:1050D000000000000302010000001F0000000000AB
:1050E0000000000303001008040201000E1119154E
:1050F00013110E0406040404040E0E11100C020118
:105100001F0E11100C10110E080C0A091F08081FA1
:10511000010F1010110E0C02010F11110E1F1008BB
:10512000040202020E11110E11110E0E11111E10A9
:105130000806000303000303000003030003020149
:105140000804020102040800001F001F0000010201
:1051500004080402010E1110080400040E111016B8
:1051600015150E0E11111F1111110F11110F111123
:105170000F0E11010101110E070911111109071F6D
:1051800001010F01011F1F01010F0101010E11019A
:105190000119111E1111111F111111070202020232
:1051A00002071C080808080906110905030509116A
:1051B0000101010101011F111B151511111111111F
:1051C00013151911110E11111111110E0F11110FCB
:1051D0000101010E1111111509160F11110F050909
:1051E000110E11010E10110E1F0404040404041109
:1051F00011111111110E11111111110A04111111B6
:105200001515150A11110A040A111111110A0404C5
:1052100004041F10080402011F0701010101010716
:105220000001020408100007040404040407040A2F
:1052300011000000000000000000001F0102040037
:1052400000000000000E101E111E01010D131111AF
:105250000F000006090109061010161911111E0091
:10526000000E111F010E040A0207020202001E11A5
:10527000111E100E01010D13111111010001010188
:1052800001010400060404040301010905030509E2
:105290000302020202020700000B151111110000A7
:1052A0000D0B09090900000609090906000709098B
:1052B000070101000E09090E08080000050301019D
:1052C0000100000E010608070202070202020200A6
:1052D00000090909090E00001111110A040000114A
:1052E0001115150A0000110A040A11000909090E16
:1052F000080600001F0804021F0402020102020443
:105300000202020202020201020204020201160962
:10531000000000000000000010000000000000007D
:105320000000000000000000000004040404040465
:105330000004000000140A0A000000000000000041
:10534000000014143F140A3F0A0A000000041E154E
:1053500005060C14150F0400000012150D0A142C7C
:105360002A1200000000040A0A1E15150936000062
:1053700000020201000000000000000000201008F0
:105380000808080808102000000204080808080897
:105390000804020000000004150E0E1504000000B1
:1053A00000000404041F04040400000000000000C6
:1053B000000000000002020100000000001F0000C9
:1053C00000000000000000000000000000020000DB
:1053D00000100808080404020202010000000E1177
:1053E00011111111110E0000000004060404040440
:1053F000040E000000000E1111080402011F00003D
:1054000000000E11100C1010110E00000000080C0E
:105410000A0A091E0818000000001F01010F1010E1
:10542000110E000000000E09010F1111110E0000F5
:1054300000001F09080404040404000000000E1109
:10544000110E1111110E000000000E1111111E108D
:10545000120E000000000000040000000004000024
:1054600000000000000400000004040000201008F8
:105470000402040810200000000000001F00001FAC
:1054800000000000000204081020100804020000C0
:1054900000000E11110804040004000000000E11A9
:1054A0001915151D011E0000000004040C0A0A1E37
:1054B0001233000000000F12120E1212120F000021
:1054C00000001E1101010101110E000000000F1269
:1054D00012121212120F000000001F120A0E0A020E
:1054E000121F000000001F120A0E0A02020700002D
:1054F00000001C1201013911120C000000003312CF
:10550000121E12121233000000001F0404040404CF
:10551000041F000000003E080808080808090700EA
:10552000000037120A060A0A1237000000000702BC
:1055300002020202223F000000001B1B1B1B15156C
:105540001515000000003B1216161A1A121700005B
:1055500000000E1111111111110E000000000F12A8
:10556000120E02020207000000000E1111111117A5
:10557000190E180000000F12120E0A121237000046
:1055800000001E1101060810110F000000001F1579
:1055900004040404040E000000003312121212125C
:1055A000120C000000003312120A0A0C040400005E
:1055B00000001515150E0A0A0A0A000000001B0A51
:1055C0000A04040A0A1B000000001B0A0A0404045F
:1055D000040E000000001F0908040402121F00004E
:1055E000001C04040404040404041C00000202025D
:1055F0000404080808100000000E0808080808083D
:1056000008080E0000040A0000000000000000006E
:1056100000000000000000000000003F0004000047
:10562000000000000000000000000000000C121C40
:10563000123C000000000302020E1212120E0000C3
:1056400000000000001C1202021C000000001810E4
:10565000101C1212123C000000000000000C121E70
:10566000021C000000003804041E0404041E000094
:1056700000000000003C120C021E221C000003026D
:10568000020E12121237000000000400000604048B
:10569000040E000000000800000C080808080807B5
:1056A00000000302023A0A0E12370000000007044D
:1056B00004040404041F000000000000000F15157E
:1056C0001515000000000000000F12121237000034
:1056D00000000000000C1212120C0000000000007C
:1056E000000F1212120E020700000000001C12121E
:1056F000121C103800000000001B06020207000008
:1057000000000000001E020C101E0000000000043B
:10571000040E04040418000000000000001B121214
:10572000123C0000000000000037120A0C040000C8
:10573000000000000015150E0A0A0000000000001D
:10574000001B0A040A1B0000000000000037120AB8
:105750000C04040300000000001E0804041E0000E6
:1057600000180808080408080808180008080808AD
:1057700008080808080808080006040404080404C7
:1057800004040600022518000000000000000000CC
:10579000FF81818181818181818181FF0000000001
:1057A00000000000000000000000000000000008F1
:1057B00008080808080800001818000000486C24B1
:1057C00012000000000000000000000000000024A3
:1057D00024247F1212127F12121200000000081CF3
:1057E0002A2A0A0C1828282A2A1C08080000002245
:1057F000251515152A585454542200000000000C99
:105800001212120A76252911916E00000006060474
:105810000300000000000000000000000040201015
:1058200010080808080808101020400000020408AA
:1058300008101010101010080804020000000000EA
:1058400008086B1C1C6B080800000000000000002A
:10585000080808087F080808080000000000000089
:105860000000000000000000060604030000000025
:1058700000000000FE00000000000000000000002A
:10588000000000000000000006060000000080404C
:105890004020201010080804040202000000001834
:1058A00024424242424242422418000000000008C2
:1058B0000E08080808080808083E00000000003C20
:1058C0004242422020100804427E00000000003CBA
:1058D0004242201820404042221C000000000020CC
:1058E0003028242422227E20207800000000007E20
:1058F0000202021A26404042221C0000000000382A
:105900002402021A26424242241800000000007EAF
:105910002222101008080808080800000000003CB7
:105920004242422418244242423C00000000001837
:105930002442424264584040241C00000000000001
:1059400000001818000000001818000000000000F7
:1059500000000008000000000008080400000040EB
:10596000201008040204081020400000000000007D
:1059700000007F0000007F00000000000000000227
:105980000408102040201008040200000000003C21
:105990004242464020101000181800000000001C71
:1059A000225A555555552D42221C00000000000872
:1059B00008181414243C224242E700000000001F93
:1059C0002222221E22424242221F00000000007CAE
:1059D0004242010101010142221C00000000001F9F
:1059E0002242424242424242221F00000000003F47
:1059F0004212121E12120242423F00000000003FFB
:105A00004212121E12120202020700000000003CA5
:105A10002222010101712122221C0000000000E766
:105A2000424242427E42424242E700000000003EC3
:105A30000808080808080808083E00000000007C64
:105A400010101010101010101010110F000000771F
:105A500022120A0E0A12122222770000000000070A
:105A60000202020202020202427F000000000077EE
:105A7000363636362A2A2A2A2A6B0000000000E32E
:105A800046464A4A52525262624700000000001CD9
:105A90002241414141414141221C00000000003FA0
:105AA000424242423E020202020700000000001C85
:105AB0002241414141414D53321C60000000003FF2
:105AC0004242423E1212222242C700000000007CE5
:105AD0004242020418204042423E00000000007F83
