:020000040800F2
:10000000580C002091010008730900086F090008CE
:10001000710900088D0700080119000800000000A0
:10002000000000000000000000000000C7130008EE
:10003000C308000800000000690E000889140008C9
:10004000AB010008AB010008AB0100085911000822
:10005000AB010008AB010008AB010008AB010008D0
:10006000AB010008AB010008AB010008AB010008C0
:10007000AB010008AB010008AB010008AB010008B0
:10008000AB010008AB0100089D050008AB010008AA
:10009000AB010008AB010008AB010008AB01000890
:1000A000AB010008AB010008AB010008AB01000880
:1000B000AB010008DD140008AB010008AB0100082B
:1000C000AB010008AB010008AB010008AB01000860
:1000D000AB01000855160008AB010008AB01000891
:1000E000AB010008AB010008AB01000800F002F80A
:1000F00000F03FF80AA090E8000C82448344AAF183
:100100000107DA4501D100F034F8AFF2090EBAE880
:100110000F0013F0010F18BFFB1A43F0010318473B
:100120006438000084380000103A24BF78C878C1D1
:10013000FAD8520724BF30C830C144BF04680C60ED
:10014000704700000023002400250026103A28BF35
:1001500078C1FBD8520728BF30C148BF0B60704739
:10016000642900F07F80002070471FB51FBD10B5C7
:1001700010BD00F0E1F91146FFF7F7FF01F0CEFEE8
:1001800000F0FFF903B4FFF7F2FF03BC01F0C0FB7E
:100190000948804709480047FEE7FEE7FEE7FEE71B
:1001A000FEE7FEE7FEE7FEE7FEE7FEE70448054957
:1001B000054A064B704700008D140008ED0000084A
:1001C00058060020580C002058080020580800202D
:1001D000704700000FB4044910B503AA029800F05C
:1001E00095F910BC5DF814FB100000200FB41CB58D
:1001F000074B06AA7B4469460090059800F06DF90C
:100200000020694600F07CF91CBC5DF814FB00007E
:100210000903000070B5044685690068C10601D570
:10022000302600E02026C00707D070BDD4E90121A8
:1002300030469047206A401C20626D1EF6D570BD86
:1002400070B5044685690078C00707D170BDD4E950
:10025000012120209047206A401C20626D1EF6D5A7
:1002600070BD00002DE9F041064600241068752994
:10027000314616A510D0AFF30080002802DA4042C4
:1002800013A507E031688A0701D512A502E04907E6
:1002900004D511A5012401E0AFF3008000210A225A
:1002A00006F1240709E0B0FBF2FCB0FBF2F302FB1D
:1002B0001C00303078541846491C0028F3D12346DE
:1002C0002A463046BDE8F04100F0A8B80000000022
:1002D0002D0000002B000000200000002DE9F05F41
:1002E000894604464FF0000ADFF824B1FB44C0F809
:1002F00020A02046E168884700287DD0252806D028
:10030000D4E901219047206A401C2062F1E70025D2
:100310005F462046E16888472028064607DB312EE5
:1003200005D2B81910F8200C08B10543F1E7A80769
:1003300001D525F00405C4F81CA00027C4F818A0B6
:100340002A2E09D0304601F0DCFA38B304EB8708D6
:10035000303EC8F8186019E059F8041B204604EB39
:1003600087029161E1688847012F064618D1E0694C
:10037000002820DA25F020051DE0D8F8180000EB51
:10038000800006EB40003038C8F818002046E168CD
:100390008847064601F0B5FA0028EED1012F0AD0B1
:1003A0002E2E08D12046E16888477F1C0646022F82
:1003B00045F02005C4DBA069002803DA404245F07F
:1003C0000105A061E80701D025F01005A6B1A6F14E
:1003D0004100192802D8203645F400654A463146C6
:1003E000204625604D46FFF7BBFE60B1012807D0CF
:1003F000ED1D25F0070000E007E000F1080978E7AF
:1004000005F1040975E730467AE7206ABDE8F09FF8
:100410003436000070477047704770472DE9F04749
:100420000D4699469246044600F124080168880664
:1004300004D5E06921F01001216000E00120A8420C
:1004400001DD471B00E00027A1697A1902EB0900D2
:10045000081AA0612078C00602D42046FFF7DAFE11
:10046000002608E0D4E901211AF806009047206A26
:10047000401C761C20624E45F4DB2078C0060AD56D
:100480002046FFF7C7FE06E0D4E90121302090475F
:10049000206A401C2062381EA7F10107F4DC07E047
:1004A000D4E9012118F805009047206A401C206219
:1004B000281EA5F10105F3DC2046FFF7C1FE2078D8
:1004C000000602D50220BDE8F0870120FBE700000E
:1004D00001694A1C02610878704700B58FB0CDE908
:1004E00001310021059105497944CDE903101146F8
:1004F0006846FFF7F3FE0FB000BD0000E5FFFFFF09
:100500000A6802F8010B0A6070470000074B70B5DB
:100510000D467B44FFF7E1FF0446284600F008F84B
:1005200010B14FF0FF3070BD204670BD6F18000055
:10053000007B00F080007047754600F02BF8AE4657
:1005400005006946534620F00700854618B020B5DF
:10055000FFF72CFEBDE820404FF000064FF00007EB
:100560004FF000084FF0000B21F00701AC46ACE85B
:10057000C009ACE8C009ACE8C009ACE8C0098D46C8
:10058000704710B50446AFF300802046BDE8104028
:10059000FFF7F8BD00487047F405002070B50B4D1B
:1005A0004FF4A0742146284600F046F800280CD0ED
:1005B0000748406818B101F005FC0649087021465B
:1005C0002846BDE8704000F018B870BD0024014016
:1005D0002C000020490000204268024B1A400A43C8
:1005E00042607047FFFD3FFF426822F01F020A434E
:1005F000426070474162826270476FEA1121016078
:1006000070470029816802D041F0010101E021F02A
:100610000101816070470029816802D041F4807136
:1006200001E021F4807181607047014600208968F3
:10063000490700D50120704710B5024600205468D4
:100640000B0AC9B20C401168194202D0002C00D02C
:10065000012010BD014600208968090700D501204E
:100660007047002A4268C9B201D00A4300E08A43B9
:100670004260704710B542680E4B0C791A400B6807
:1006800042EA04221343436083680B4A1340D1E9D2
:10069000024222434C7943EA44031A438260C26A0D
:1006A000097C22F47002491EC9B242EA0151C162BA
:1006B00010BD0000FFFEF0FFFDF7F1FF70B507244D
:1006C00009290AD9C568A1F10A0606EB4606B44015
:1006D000A543B3401D43C56007E0056901EB410632
:1006E000B440A543B3401D4305611F23072A09D227
:1006F000446B521E02EB820293409C4391400C4398
:10070000446370BD0D2A09D2046BD21F02EB820232
:1007100093409C4391400C43046370BDC46A0D3AFE
:1007200002EB820293409C4391400C43C46270BD33
:10073000816841F00801816070470029816802D01A
:1007400041F4A00101E021F4A001816070478168BB
:1007500041F004018160704710B5012000F0B4FB46
:10076000BDE81040002000F0AFBB000008B5024912
:1007700008440090008808BD006C004008B5024A9B
:1007800010440090016008BD006C0040FEE70029A5
:10079000016802D041F0010102E04FF6FE72114003
:1007A0000160704701684FF6FE7211400160002140
:1007B000016041608160C1603149314A083990422D
:1007C00003D1486840F00F0006E02D4A14329042F1
:1007D00004D1486840F0F00048607047284A283249
:1007E000904203D1486840F47060F5E7244A3C32F7
:1007F000904203D1486840F47040EDE7204A5032FF
:10080000904203D1486840F47020E5E71C4A643206
:10081000904203D1486840F47000DDE7184A78320E
:10082000904203D1486840F07060D5E7154A111F27
:10083000904203D1086840F00F0006E0114A1432DC
:10084000904204D1086840F0F000086070470D4AFB
:100850002832904203D1086840F47060F5E7094AF5
:100860003C32904203D1086840F47040EDE7054AFD
:1008700050329042EAD1086840F47020E5E7000069
:10088000080002400804024030B5036847F6F072E1
:1008900093430C6A8A682243D1E904452C432243DE
:1008A0008C692243CC6922434C6A22438C6A2243DE
:1008B0001A430260CA6842600A6882604968C1607F
:1008C00030BD7047F0B5CA78002502F00F03D2069C
:1008D00001D58A7813430A784FF00F0E12F0FF0FFC
:1008E0004FF001021CD004680F8802FA05F6374069
:1008F000B74211D14FEA850C0EFA0CF724EA07072C
:1009000003FA0CF43C43CF78282F02D0482F02D0B2
:1009100002E0466100E006616D1C082DE4D304602E
:100920000C88FF2C1ED944685FF0000606F108070A
:1009300002FA07F50F882F40AF420FD14FEA860C1D
:100940000EFA0CF7BC4303FA0CF73C43CF78282F80
:1009500000D14561CF78482F00D10561761C082E63
:10096000E4D34460F0BD4161704701617047FEE728
:10097000FEE770474FF4A06000F032B870B50F2367
:10098000C47801780122F4B1144C2468457804F449
:10099000E064C4F5E064240AC4F10406E34084780A
:1009A000B5401C402C4301F1E021230181F80034C3
:1009B000007800F01F018A404009800000F1E0202B
:1009C000C0F8002170BD01F01F008240480980007E
:1009D00000F1E020C0F8802170BD00000CED00E0C7
:1009E0000249084302490860704700000000FA0508
:1009F0000CED00E030B40021084B0A465FF0000027
:100A000003EBC0046254401CC0B28028F8D3491CD8
:100A1000C9B20829F2D330BC00F002B9F4010020B9
:100A200070B57F281CD83F291AD8CC0801F00703DD
:100A300001259D40EBB20B4D05EBC0052E5D1E4020
:100A400096420DD0002A2A5D01D01A4300E09A4355
:100A50002A5500F0FFF8285DBDE8704000F0F6B9B7
:100A600070BD0000F40100202DE9F0471E46174636
:100A700088460546DDF820900CE0444606E04A46EC
:100A800021462846FFF7CCFF641CE4B2B442F6D9F5
:100A90006D1CEDB2BD42F0D9BDE8F0872DE9F04103
:100AA00086B00121082000F003FA01218F033846A7
:100AB00000F0F2F9B810ADF800001025DFF89480CE
:100AC0008DF8035003248DF8024069464046FFF735
:100AD000F9FE4FF42046ADF8006018208DF80300B1
:100AE0008DF8024069464046FFF7ECFEADF8007015
:100AF0008DF803508DF8024069464046FFF7E2FE4C
:100B000031464046FFF731FF0020ADF80400ADF854
:100B100008004FF48271ADF806100221ADF80A10FA
:100B20000121ADF81000ADF80C10ADF8120049022B
:100B30000720094CADF80E10ADF8140001A92046AD
:100B400000F025FC0121204600F010FC06B0BDE8B5
:100B5000F0810000000C01400038004070B5FFF744
:100B60009DFF2E4D4FF4804421462846FFF7FBFEA3
:100B70000A2000F095FF21462846FFF7F6FEAE203A
:100B800000F05CF9D52000F059F9F02000F056F99A
:100B9000A82000F053F93F2000F050F9D32000F0D6
:100BA0004DF9002000F04AF9402000F047F98D206F
:100BB00000F044F9142000F041F9202000F03EF943
:100BC000022000F03BF9A12000F038F9C82000F025
:100BD00035F9DA2000F032F9122000F02FF98120E7
:100BE00000F02CF9FF2000F029F9D92000F026F9B7
:100BF000F12000F023F9DB2000F020F9302000F094
:100C00001DF9A42000F01AF9A62000F017F9AF2072
:100C100000F014F9BDE87040FFF7ECBE000C014095
:100C200070B50B4E002400BF04F1B000C0B200F05C
:100C300005F9002506EBC500005D00F007F96D1C05
:100C4000EDB2802DF6D3641CE4B2082CECD370BD59
:100C5000F401002010B50446B02000EBD100C0B272
:100C600000F0ECF804F00F0000F0E8F8102000EBC2
:100C70001410BDE8104000F0E1B800002DE9F05F6D
:100C8000203A98468A46054602F0FF0B0024DFF81A
:100C90007C9035E0B8F1070F12D0B8F1100F14D0E6
:100CA0001B490BEB4B0001EB80000835065D08206B
:100CB00089F80000EDB2002730060AD50A9A0BE049
:100CC0001449CBEBCB000844EFE7134901EB0B10C1
:100CD000EBE70A98C0B1002251462846FFF7A0FE74
:100CE0007006060E6D1E7F1C99F80000FFB2EDB273
:100CF0008742E1D30AF10100641C00F0FF0AE4B26C
:100D00004445C7D3BDE8F09F0122E5E72800002055
:100D1000A82E0008082C0008283300082DE9F84FF9
:100D20008B464FF00A08B2FBF8F11546044608FB63
:100D30001150DDE90A763030C2B29A465946204653
:100D40000096FFF79BFF092D01D8012F42D9082CEF
:100D500040D34FF06409B5FBF9F109FB1151B1FB28
:100D6000F8F03030C2B2A4F10800C0B25346594680
:100D70000096FFF783FF632D01D8022F2AD9102C8C
:100D800028D34FF47A78B5FBF8F108FB1151B1FB89
:100D9000F9F03030C2B2A4F11000C0B25346594647
:100DA0000096FFF76BFF454501D2032F12D9182C8F
:100DB00010D342F21070B5FBF0F100FB1151B1FB02
:100DC000F8F03030C2B2183CE0B2534659460096B3
:100DD000FFF754FFBDE8F88F2DE9F8431F4615468D
:100DE00088460446089E0AE03B4641462046009657
:100DF000FFF744FF0834E4B26D1C772C02D82A7840
:100E0000002AF1D1BDE8F88370B5054600240A4EEA
:100E100003E0641CE4B2C82C0DD80221304600F077
:100E2000AFFA0028F5D004480C300580BDE87040CA
:100E3000012000F049BE70BD00380040024A002188
:100E4000C2F8B011FFF7E0BF00802142024A012141
:100E5000C2F8B011FFF7D8BF0080214201490862F3
:100E60007047000000000E4270470000034A5168BE
:100E700021F44041014351607047000000100240DE
:100E8000044A0029516901D0014300E081435161C6
:100E90007047000000100240044A0029D16901D0C7
:100EA000014300E08143D16170470000001002401F
:100EB000044A0029916901D0014300E08143916116
:100EC00070470000001002400149086070470000B0
:100ED000400442420248416A41F0807141627047D9
:100EE0000010024030B51F494A6812F00C031E4A38
:100EF00003D0042B01D0082B21D002604A680F23B5
:100F00001A4C03EA1212A35C0268DA4042604B6892
:100F1000072505EA1323E35C22FA03F383604B6899
:100F200005EAD323E35CDA40C2604968032303EA9D
:100F30009131231F595CB2FBF1F1016130BD4A6868
:100F40004B6802F470124FF0020413F4803F04EB7C
:100F5000924202D04B689B0301D5054B00E0024B47
:100F60005A43CAE70010024000127A00180000201D
:100F700000093D000246002053090949012B0BD00E
:100F8000022B0BD0D1F8241002F01F020123934052
:100F90000B4200D0012070470968F5E7096AF3E7C2
:100FA000001002400149086070470000800442427E
:100FB00001490860704700003C04424202490A6A45
:100FC00002430A62704700000010024002490A888A
:100FD00082430A80704700000428004010B50121B8
:100FE0004FF0C050FFF758FF0120FFF737FFFFF722
:100FF000B3FB0120FFF7D6FF6120FFF7BBFF0028FE
:10100000FAD04FF48070FFF7D9FF0120FFF7D0FF2F
:1010100000F0A0F900F096F90121084600F0ACF8C4
:1010200000F090F94FF4004000F014F9BDE81040D2
:1010300000F088B90248018841F010010180704732
:10104000042800400248018821F010010180704707
:1010500004280040034800880249091F098840EA23
:10106000014070471C2800402DE9F0470546FFF776
:10107000F1FFDFF8BC800746B0FBF8F4201D072124
:10108000B0FBF1F201FB1200287184B340F2B2769A
:101090004FF4B77A4FF4B6790FE0304600F07EFE99
:1010A00038B1544502D3A4F5B77404E0761CB6B247
:1010B00005E0A4F26D14761CB6B24C45EDD82E8036
:1010C0000026DFF870900CE0288800F067FE08B179
:1010D000012E29D019F80600A04204D8241A761C43
:1010E000B6B21C2CF0D2761CAE70641CEC70B7FB50
:1010F000F8F108FB11704FF46161B0FBF1F26A7115
:10110000B0FBF1F201FB12033C22B3FBF2F3AB7133
:10111000B0FBF1F301FB1300B0FBF2F102FB110095
:10112000E8710020BDE8F0871D2CDCD31D3CD6E71C
:10113000805101001839000806490988C2B21140DF
:10114000044A121F1288024202D009B101207047DE
:10115000002070470428004010B50120FFF7ECFF85
:10116000012806D1FFF732FFBDE810400148FFF724
:101170007BBF10BD34000020044A0029118801D033
:10118000014300E0814311807047000000280040C7
:101190001CB501214FF0C050FFF77EFE0120FFF784
:1011A0005DFE0120FFF7FEFE0420FFF7DFFA45F2A7
:1011B0005004A04219D0FFF711FF00F0C3F8FFF769
:1011C00039FF3B213220CDE9000111230E220321FA
:1011D00040F2E27000F04EF800F0B4F8FFF732FF92
:1011E00021460420FFF7CAFA09E000F0B3F800F046
:1011F000A9F801210846FFF7BFFF00F0A3F8FFF7A9
:1012000069FEBDE81C40AFF3008008B54FF4C06034
:10121000FFF7E6FB03208DF8000001208DF80100A8
:1012200000218DF802108DF803006846FFF7A6FB39
:1012300008BD000000B50246FFF7FCFE0449100C93
:101240000880081D02805DF804EBFFF7FBBE00007C
:101250001828004000B50246FFF7ECFE0449C2F32F
:1012600003400880081D02805DF804EBFFF7EABE2A
:10127000082800402DE9FF5F06460024A0F2B27066
:1012800093468A46822803D3012004B0BDE8F09F2C
:1012900040F2B275274FDFF8A08008E0284600F042
:1012A0007DFD08B13C4400E044446D1CADB2B54244
:1012B000F4D30025DFF88480DFF88490AAF10107D9
:1012C00010E000BF18F8050040F2A321484304EBEA
:1012D000C014304600F062FD10B1012D00D14C4425
:1012E0006D1CADB2BD42EDDB40F2A3210BFB01F062
:1012F00004EBC0111248404208440399C1EB41126B
:10130000C2EB012100EB01100E99C1EB011100EBC2
:1013100081000F99441801214FF0C050FFF7BCFD28
:101320000120FFF79BFD2046FFF784FF00F00AF83D
:101330000020AAE70085E2018033E10118390008A6
:1013400080510100024801888906FCD570470000E1
:10135000042800400448018821F008010180018828
:101360000907FCD5704700000428004000290188C7
:1013700002D041F0400101E021F0400101807047BE
:101380000246002012890A4200D00120704730B581
:1013900002884C8802F441530A88CD8822438C8805
:1013A0002C4322430C8922434C8922438C892243BB
:1013B000CC8922431A430280828B22F4006282830A
:1013C000098A018230BD70470CB500212648019181
:1013D0000091026842F4803202604FF4A063026818
:1013E00002F400320092019A521C0192009A12B942
:1013F000019A9A42F3D10268920333D501210091F8
:101400001A490A6842F010020A600A6822F00302D0
:101410000A600A6842F002020A604168416041685D
:101420004160416841F480614160416821F47C1170
:101430004160416841F4E8114160016841F0807108
:10144000016001688901FCD5416821F00301416018
:10145000416841F0020141604168C1F38101022904
:10146000FAD10CBD00910CBD0010024000200240DA
:101470004FF0E0210428086903D020F0040008613F
:10148000704740F00400FAE7704700000F4810B5BD
:10149000016841F00101016041680D4A114041605D
:1014A00001680C4A11400160016821F4802101604B
:1014B000416821F4FE0141604FF41F018160FFF794
:1014C00083FF05494FF00060086010BD0010024026
:1014D0000000FFF8FFFFF6FE08ED00E010B50A4C33
:1014E0000121204600F053F8012807D1074A11884E
:1014F000491C11800649AD20096888472046BDE88F
:101500001040012100F036B8000400402A000020FD
:10151000300000201FB501210220FFF7BDFC40F282
:10152000CF20ADF8000047F22F50ADF804000020A6
:101530000F4CADF80200ADF806006946204600F0F9
:101540003BF81D208DF80C0001218DF80D108DF851
:101550000E108DF80F1003A8FFF710FA01221146A4
:10156000204600F020F80121204600F006F81FBDBB
:1015700000040040C943018270470029018802D05D
:1015800041F0010101E021F00101018070470246B4
:101590000020138A92890B4202EA010202D0002A3B
:1015A00000D001207047002A828901D00A4300E060
:1015B0008A4382817047000030B502881B4B1C4C67
:1015C00098420DD0A0420BD0B0F1804F08D0194DF9
:1015D000A84205D0184DA84202D0184DA84203D108
:1015E00022F070054A882A43154DA84206D0154DB1
:1015F000A84203D022F44075CA882A4302808A8810
:1016000082850A88028598420AD0A04208D00E4AF4
:10161000904205D00D4A904202D00D4A904201D12D
:10162000097A01860121818230BD0000002C014031
:10163000003401400004004000080040000C00405D
:1016400000100040001400400040014000440140F0
:101650000048014070B5314A108802F104030007C8
:1016600000D51888108801062D4812D52B490C3159
:101670000C8824060DD52B4D04782D5D1D80641C2F
:10168000E4B204704578AC4203D10C8824F08004A5
:101690000C80118889061ED51988C2780124224B36
:1016A000C9B20025C2B1012A1ED0022A26D0032ABF
:1016B0002AD0867803EB4616B154521CC27081784A
:1016C00003EB4112C378D278521D9A4203D8C570F9
:1016D00009B38570447170BDAA29F0D1827803EBFB
:1016E00042121170C470EAE7AF2901D0C570E6E775
:1016F000827803EB4212517002210AE0827803EBF8
:1017000042129170032104E0827803EB4212D170FF
:101710000421C170D3E78470047170BD00380140AA
:1017200004000020B4000020B401002010B5038A9A
:101730004FF2FF0213400A884C8822438C88C988E4
:101740000C4322431A43028210BD0029818902D032
:1017500041F4005101E021F400518181704710B53E
:10176000C1F3421301F01F040121A140012B07D056
:10177000022B07D01430002A026805D00A4304E087
:101780000C30F8E71030F6E78A43026010BD000025
:1017900030B50446008A85B00D464CF6FF7108400E
:1017A000E98801432182A1894EF6F3100140A888FF
:1017B0002A8910436A890A431043A081A08A4FF600
:1017C000FF410840A9890143A1826846FFF78AFBCF
:1017D0001948844201D1039800E00298A1890904C4
:1017E00000EBC00101EB0010296801D5490000E0C1
:1017F0008900B0FBF1F06422B0FBF2F109010B09A2
:101800006FF018056B4300EB8300A3891D044FF0B4
:10181000320306D503EBC000B0FBF2F000F0070086
:1018200005E003EB0010B0FBF2F000F00F000843FE
:10183000208105B030BD000000380140F0B50646FB
:10184000012189B08803FFF733FB01210420FFF752
:101850002FFB4FF40075ADF8105003248DF81240A3
:101860001820254F8DF8130004A93846FFF72AF8F1
:101870006800ADF810008DF8124004208DF81300B8
:1018800004A93846FFF71EF80020ADF80400ADF8B3
:1018900006000096ADF80800ADF818500C21ADF820
:1018A0001400164DADF80C00ADF80A10ADF8160096
:1018B000ADF81A0069462846FFF76AFF05A92846D1
:1018C000FFF734FF25208DF81C008DF81D408DF8A2
:1018D0001E4001208DF81F0007A8FFF74FF80122D6
:1018E00040F225512846FFF73AFF01212846FFF72D
:1018F0002CFF09B0F0BD0000000801400038014095
:10190000FEE730380A2801D20120704700207047D6
:101910000020704770B5012190B00846FFF7B0FA7B
:1019200001214802FFF7C4FA2C4E3046FEF73AFF79
:101930002B4800902B4801A90024012581E83100A3
:101940008020CDE9044040000690800007902020D0
:1019500008900002CDE9090469463046FEF794FF7D
:1019600001213046FEF713FF8DF830500B948DF8AF
:1019700031504FF46020CDE90D04194C8DF83C50E6
:101980004C3C0BA92046FEF775FE4FF44040FFF794
:101990006DFA0723012200212046FEF78FFE012168
:1019A0002046FEF738FE01212046FEF72AFE20469B
:1019B000FEF7BEFE2046FEF74DFE0028FAD1204677
:1019C000FEF7C5FE2046FEF730FE0028FAD10121C1
:1019D0002046FEF7B2FE10B070BD000008000240C5
:1019E0004C2401402C00002008B501210420FFF701
:1019F0005FFA0120ADF8000000208DF80300694671
:101A00000148FEF75FFF08BD0008014010B5FFF771
:101A1000EBFFFFF77FFFBDE8104000F001B80000CA
:101A200038B5124C00212046FEF7DEFD40F6666216
:101A300040F6FF712046FEF7DDFD12208DF8000014
:101A400001218DF8011000208DF802008DF803109F
:101A50006846FEF793FF01224FF4A0712046FEF77F
:101A600000FE03492046FEF7B7FD38BD00240140C3
:101A70000002800010B504466FF00400FFF7F8FC88
:101A80000648E10801EB41020170C2EBC1114FF6BB
:101A9000FF7202EAC101418010BD00000000002079
:101AA0000849498848434FF0E02148610020886197
:101AB00001220A610A69D30701D0D203FAD508616D
:101AC00088617047000000200849097848434FF0BA
:101AD000E02148610020886101220A610A69D30778
:101AE00001D0D203FAD50861886170470000002058
:101AF000AD2802D10148C06800477047440000206B
:101B00002DE9F047204C0123204F2079A17894F84B
:101B100005C0421A0025ACF1F10CD2B204F11C064A
:101B20004FF00209BCF1050F2AD2DFE80CF0030CDC
:101B30002A1A1A000AB1401E0EE011B1491EA17006
:101B4000217123701DE0032A05D1E278121F914212
:101B5000F7DA491CA170401C2071F2E784F801906B
:101B60000FE02570FEF746FF207900EB400006EB02
:101B70008000806800F0AEFB0028EFD1E760EDE761
:101B800025706571BDE8F08744000020611C0008E5
:101B90002DE9FC5F2B4800250178002950D0012158
:101BA00000F110048A4621814FF0000B814600F1BC
:101BB0001C08A4F808A0CDF800A0E3796E1C03FB74
:101BC00006F0C1B2574620A20020FFF705F9207A9F
:101BD000CDE9007099F80200E379284400EB400158
:101BE00003FB06F018F82120C1B24F460020FFF792
:101BF00095F8207A0090E37918A203FB06F0C1B2B1
:101C0000A079FFF7E9F83979B878091AA94201D122
:101C1000A4F808B0217A0091284400EB400108EBB9
:101C20008100E379426803FB06F0C1B2A079400667
:101C3000000EFFF7D1F8F5B2042DBAD389F800B041
:101C4000BDE8FC9F440000202020202020202020F0
:101C50002020202020202020000000002E00000056
:101C600010B50B4C6079F13803280ED2DFE800F094
:101C70000D0D0200FEF7BEFE064800F02BFB20B95A
:101C80000548E0600120607020700020607110BD88
:101C900044000020911B0008011B00080748002198
:101CA00007228170C27001710121064A4170044906
:101CB0001160054981600549C160704744000020FA
:101CC000F11A000830000020911B0008011B0008D9
:101CD00030B51C4C87B01CA1228801A8FEF786FAFB
:101CE00001250021102301AA08460095FFF774F88A
:101CF000E378A27816A101A8FEF778FA102301AACA
:101D0000194600200095FFF767F8227915A101A870
:101D1000FEF76CFA102301AA202100200095FFF79E
:101D20005BF8E0790090A379627911A101A8FEF730
:101D30005DFA102301AA302100200095FFF74CF82E
:101D400007B030BD34000020596561723A25640047
:101D50004D6F6E74683A253264204461793A2532B9
:101D6000642500005765656B3A256420000000007B
:101D700054696D653A2532643A253032643A25302B
:101D80003264000004490A885206FCD5024AC1B2F6
:101D9000121D11807047000000380140810705D1F5
:101DA0006421B0FBF1F201FB120141B94FF4C8719B
:101DB000B0FBF1F201FB120008B1002070470120D6
:101DC000704700002DE9F05F4F4C4B4E4FF0663BE3
:101DD0004A4FDFF82C81DFF82C914C4DDFF830A111
:101DE000208800F037FB0022334600F0E3FB00229E
:101DF0002B4600F043FB0ED2208800F02BFB002284
:101E0000334600F0CBFB00222B4600F037FB02D21A
:101E1000F120BDE8F09F208800F01CFB5E465A468A
:101E20003B4600F0C7FB00222B4600F027FB0DD2FB
:101E3000208800F00FFB32463B4600F0AFFB00224B
:101E40002B4600F01BFB01D2F220E2E7208800F0D5
:101E500001FB00224646434600F0ACFB00222B4625
:101E600000F00CFB0DD2208800F0F4FA002233467B
:101E700000F094FB00222B4600F000FB01D2F3207F
:101E8000C7E7208800F0E6FA224E4F4632464B461E
:101E900000F090FB00222B4600F0F0FA0DD22088D3
:101EA00000F0D8FA32463B4600F078FB00222B4681
:101EB00000F0E4FA01D2F420ABE7208800F0CAFA7F
:101EC000154F564652463B4600F074FB00222B4607
:101ED00000F0D4FA0DD2208800F0BCFA32463B461E
:101EE00000F05CFB00222B4600F0C8FA01D2F5207E
:101EF0008FE7FF208DE700000000A0406666AA4043
:101F00000000A8406CE7AB402C00002000004940D6
:101F1000F2D24D628195438B1058A54008B5FFF76A
:101F200037F94820FFF7A6FDFEF724FD4FF4E13016
:101F3000FFF784FCFFF76AFD6420FFF7B1FDFEF7B1
:101F40000DFE0120002100903F237F220846FEF76E
:101F50008BFD0020012100903E237E220846FEF7E3
:101F600083FDFEF747FDFFF799FE0548006800F086
:101F70006FF9FFF7CFFA00BF00F082F9FCE700002D
:101F80004C00002010B588B0FFF71CFF1549164C17
:101F9000F128087002D0F22803D007E0E078401C56
:101FA00001E0E078401E00F01F00E070E2780FA131
:101FB00002A8FEF71BF9012000210090102302AABD
:101FC0000846FEF709FF6420FFF76AFDE179A07972
:101FD000CDE900016379E278A1782088FFF74AF91A
:101FE00008B010BD49000020340000206461793A37
:101FF0002532640010B588B0FFF7E4FE1749184C8D
:1020000008701821F12802D0F22803D00AE0607984
:10201000401C01E06079401EC0B2B0FBF1F201FB50
:102020001200607162790FA102A8FEF7DFF80120AB
:1020300000210090102302AA0846FEF7CDFE64207E
:10204000FFF72EFDE179A079CDE900016379E2780F
:10205000A1782088FFF70EF908B010BD49000020D4
:1020600034000020686F75723A2532640000000069
:1020700010B588B0FFF7A6FE1749184C08703C2130
:10208000F12802D0F22803D00AE0A079401C01E038
:10209000A079401EC0B2B0FBF1F201FB1200A071AA
:1020A000A2790FA102A8FEF7A1F80120002100905B
:1020B000102302AA0846FEF78FFE6420FFF7F0FC0B
:1020C000E179A079CDE900016379E278A1782088EF
:1020D000FFF7D0F808B010BD490000203400002000
:1020E0006D696E7574653A253264000010B588B06C
:1020F000FFF768FE1749184C08700D21F12802D02F
:10210000F22803D00AE0A078401C01E0A078401E2D
:10211000C0B2B0FBF1F201FB1200A070A2780FA1D7
:1021200002A8FEF763F8012000210090102302AA04
:102130000846FEF751FE6420FFF7B2FCE179A07972
:10214000CDE900016379E278A1782088FFF792F861
:1021500008B010BD49000020340000206D6F6E747F
:10216000683A25326400000010B588B0FFF72AFEF7
:102170001749184C08703C21F12802D0F22803D0EE
:102180000AE0E079401C01E0E079401EC0B2B0FBFB
:10219000F1F201FB1200E071E2790FA102A8FEF753
:1021A00025F8012000210090102302AA0846FEF71E
:1021B00013FE6420FFF774FCE179A079CDE90001FA
:1021C0006379E278A1782088FFF754F808B010BD51
:1021D00049000020340000207365633A2532640012
:1021E00010B588B0FFF7EEFD1449154CF1280870C2
:1021F00002D0F22803D005E02088401C01E02088AE
:10220000401E208022880FA102A8FDF7EFFF0120C9
:1022100000210090102302AA0846FEF7DDFD64208D
:10222000FFF73EFCE179A079CDE900016379E2781E
:10223000A1782088FFF71EF808B010BD49000020E3
:1022400034000020796561723A2532640000000094
:1022500010B103490860704702A0FDF7BBBF000042
:102260003C0000206E6F20646566756C74206170A0
:102270007020686173207365742E0D0A00000000E1
:10228000044C216811B160688847FAE702A0FDF7A5
:10229000A1FFF6E73C0000206E6F20617070207493
:1022A0006F2072756E2C20737461636B2068657289
:1022B0006520616E6420776169746520666F7220A5
:1022C00061707020746F20696E736572742E0D0AD0
:1022D00000000000002110B1034A106001E04FF03F
:1022E000FF310846704700003C00002010B591EA1D
:1022F000030F48BF83F0004300F16481841A71EB3F
:10230000030C05D2121943EB0C03001B61EB0C010B
:10231000DFF824E14FEA1154A4EB135C1EEA430FEB
:1023200018BF9EEA445F73D023EA0E03DCF1200E4F
:1023300021EA045143F4801332D322FA0CFE10EB4D
:102340000E0023FA0CFE41EB0E01CCF1200E03FA35
:102350000EFE10EB0E0051F10001B1F5801FCCF123
:10236000200E32D201EB045112FA0EF2BDE81040F9
:1023700058BF7047401C38BF5FEA420218BF704721
:10238000002814BF20F0010041F100014FEA410391
:1023900013F5001F38BF7047A1F1C04100F0F8B835
:1023A000012A43EB0302ACF1200CDCF11F0E32BF1B
:1023B0004FF0000E23FA0CF310EB030041EB045135
:1023C000B4EB115FD0D0A1EB045101F580114908A5
:1023D0005FEA300001EB04510ED350F1000038BF2A
:1023E00012FA0EFE08D1BDE81040C9E7401C38BF04
:1023F0005FEA4202CAD1C3E7BDE810404FEA410399
:1024000013F5001F38BF7047A1F1C04100F0C0B8FC
:102410009EEA445F08D011EA5E0FBDE8104004BF99
:1024200001F0004100207047BDE8104070B500F099
:1024300061F800BF64FBBE3E0000E0FF491058BFDA
:10244000C1F140415B1058BFC3F140438B42EFF3F1
:1024500000807047B0FA80F310FA03F10AD0C3F19C
:102460001D0303F580634FEA41504FEA035202EB2C
:10247000D12170474FF000007047000051EA030C73
:1024800017D41CF5801F58BFBCF5801F00F10680D3
:10249000994218BF704708BF9042704707D711F59F
:1024A000801F58BF13F5801F19D499427047894285
:1024B00070471CF5801F08D5BCF5801FF7D58B42EF
:1024C00018BF704708BF824270474FF4001C1CEBD6
:1024D000410F38BF1CEB430F01D28B42704770B5E0
:1024E00000F008F8922449004FF000514FF080535B
:1024F000FFF7A4BF0EF1020E2EF0030E5EF8046B80
:10250000364205D4012A43EB030515F5001F12D806
:10251000012841EB010C1CF5001F0CD80ED14FEA2D
:10252000D17C15F5001F0CEB4C0C0CF1020C08BF14
:102530004CEBD37C04E04FF0080C01E04FEAD37C75
:102540000CEB4C0526FA05F606F00706B6F1040C6E
:1025500006D20EEB860CBDE870404CF0010C6047D3
:10256000DFE80CF0090B02024FF000414FF00000D1
:10257000A1F5002170BD19461046012851EB010458
:1025800018BFD4F5001484BF002001F0004170BDD5
:102590000808A0F500114FEA3101704791EA030FD6
:1025A00010B581F000413FF5A9AE83F0004300F083
:1025B00009B8000010B591EA030F48BF83F000434B
:1025C0003FF59CAE841A71EB030C07D212198CF004
:1025D000004C43EB0C03001B61EB0C01DFF8A4E1A2
:1025E0004FEA1154A4EB135C1EEA430F18BF9EEA96
:1025F000445F00F0B08023EA6E03524221EA0451A6
:10260000C3EB6E0338BF5B1EDCF1200E25D322FA2C
:102610000CFE10EB0E0043FA0CFE41EB0E01CCF168
:10262000200E03FA0EFE10EB0E0051F10001CCF16A
:10263000200E29D412FA0EF201EB0451BDE810402D
:1026400058BF7047401C1CBFB2F1004F70470028B4
:102650000CBF491C20F00100704712EB020E43EB47
:10266000030218BF4FF0010E4EEA4202ACF1200CFB
:10267000DCF11E0E54D943FA0CFE10EB0E0051F1A2
:10268000FF31CCF11E0ED5D50EF1010E12FA0EFE61
:10269000404141EB010101EB445C5FEA5C5C10D915
:1026A00010EBDE7001EB045138BFBEF1004FBDE806
:1026B000104018BF704700280CBF491C20F00100D3
:1026C000704730D24FEAD42C11F5001124F4006485
:1026D0001BD0B1FA81F20B3AA41AA41ED2F1200346
:1026E000914030FA03F31943904001EBCC71002C78
:1026F00001EB0451BDE81040A8BF704701F1C04193
:102700004FF0000001F000417047B0FA80F310FA7A
:1027100003F100D110BDE41A173C4805C90AE4E7EB
:1027200001EB045110BD491001EB0451BDE810400C
:102730004FEA300002E04FF0000170474A0008BF46
:102740000042F8D0B2F5001F28BF704701F00041E9
:102750004FF0000070479EEA445F07D011EA5E0F19
:10276000BDE8104004BF002100207047BDE81040C4
:1027700070B5FFF7BFFE00BF40DFF63E83F00041BB
:10278000104670470000E0FFFFFFFFFFFFFFFFFF65
:10279000FFFFFFFFFFFFFFFFFFFFFFFFFFFFFFFF49
:1027A000FFFFFFFFFFFFFFFFFFFFFFFFFFFFFFFF39
:1027B000FFFFFFFFFFFFFFFFFFFFFFFFFFFFFFFF29
:1027C000FFFFFFFFFFFFFFFFFFFFFFFFFFFFFFFF19
:1027D000FFFFFFFFFFFFFFFFFFFFFFFFFFFFFFFF09
:1027E000FFFFFFFFFFFFFFFFFFFFFFFFFFFFFFFFF9
:1027F000FFFFFFFFFFFFFFFFFFFFFFFFFFFFFFFFE9
:10280000FFFFFFFFFFFFFFFFFFFFFFFFFFFFFFFFD8
:10281000FFFFFFFFFFFFFFFFFFFFFFFFFFFFFFFFC8
:10282000FFFFFFFFFFFFFFFFFFFFFFFFFFFFFFFFB8
:10283000FFFFFFFFFFFFFFFFFFFFFFFFFFFFFFFFA8
:10284000FFFFFFFFFFFFFFFFFFFFFFFFFFFFFFFF98
:10285000FFFFFFFFFFFFFFFFFFFFFFFFFFFFFFFF88
:10286000FFFFFFFFFFFFFFFFFFFFFFFFFFFFFFFF78
:10287000FFFFFFFFFFFFFFFFFFFFFFFFFFFFFFFF68
:10288000FFFFFFFFFFFFFFFFFFFFFFFFFFFFFFFF58
:10289000FF7F1F1F1F1F1F1F1F1F1F1F1F1F1F1F08
:1028A0001F1F1F1F1F1F3F7FFFFFFFFFFFFFFFFFB8
:1028B000FFFFFFFFFFFFFFFFFFFFFFFFFFFFFFFF28
:1028C000FFFFFFFFFFFFFFFFFFFFFFFFFFFFFFFF18
:1028D000FFFFFFFFFFFFFFFFFFFFFFFFFFFFFFFF08
:1028E000FFFFFFFFFFFFFFFFFFFFFFFFFFFFFFFFF8
:1028F000FFFFFFFFFFFFFFFFFFFFFFFFFFFFFFFFE8
:10290000FFFFFFFFFFFFFFFFFFFFFFFF7F3F0F0303
:102910000100000000000000008098B8B0BCBDB805
:10292000303838000000000001070F3FFFFFFFFFB5
:10293000FFFFFFFFFFFF7F3F272321393F2F232189
:1029400031272361F9EFE77B2121233F2723313909
:10295000232131212171EFE361313333313B2F23C7
:102960002121393F2763E1EB6363332723233B2F87
:1029700023233B3F3F3F7FFFFFFF3F3F3F3F3F3F23
:102980003F3F3F3F3FFFFFFFFF9F07010000000069
:1029900000CEDAF8CC0000FCFFFFFFEFE7FFFFFFFF
:1029A000FFEFE7FFFF00000000000000000307DF6B
:1029B000FFFFDFC7C3C0C0C0E0F0C0C3C3C1C0C019
:1029C000D0F8FCFEC7C1C0C0C0C0C0DCCEC7C1C00B
:1029D000C0C0E0F0DCCFC3C0C0C0C0C0D8C9C3C154
:1029E000C0C0E0F0FCEFC3C1C0C0C0C0C8CECFC300
:1029F000C0C0C0E0F0F8FEFFFFCFC3C1C0C0C0F050
:102A0000FCFEFFFFFFFFFFFFFFFFFFFCF0C08000A9
:102A100000001FFFFFFCE0E7E7EFEFEFEFEFEFEF66
:102A2000EFEFEFEFE7E0E0C0C08080E0F0FCFFFFF9
:102A3000FFFFFFFFFFFFFFFFFFFFFFFFFFFFFFFFA6
:102A4000FFFFFFFFFFFFFFFFFFFFFFFFFFF703F4A5
:102A5000B681FB93FFFE00FFFF1FD0D616F616D6F9
:102A6000D01FFFFF9B00E9FF01FCFC00FF7FFFFF81
:102A700028960841E748863239FFFFFFFF7F9FE035
:102A8000C73F7FFFFFFFFFFFFFFFFFFFFFFFFFFECF
:102A9000F8F0C0C0C1C1E1FFFFFFFFFFFFFFFFFF74
:102AA000FFFFFFFFFFFFFFFFFFFFFFFFFFFFFFFF36
:102AB000FFFFFFFFFFFFFFFFFFFFFFFFFFFFFFFF26
:102AC000FFFFFFFFFFFFFFFFFFFFFFFFFFFFFCFD1B
:102AD000FDFDFEFFFDFCFEFFFFFCFDFCFCFFFCFC22
:102AE000FDFCFFFFFFFCFFFCFEFFFFFEFCFEFFFF07
:102AF000FCFDFDFCFFFCFDFDFCFFFFFCFEFFFFFFFE
:102B0000FFFFFEFEFFFFFFFFFFFFFFFFFFFFFFFFD7
:102B1000FFFFFFFFFFFFFFFFFFFFFFFFFFFFFFFFC5
:102B2000FFFFFFFFFFFFFFFFFFFFFFFFFFFFFFFFB5
:102B3000FFFFFFFFFFFFFFFFFFFFFFFFFFFFFFFFA5
:102B4000FFFFFFFFFFFFFFFFFFFFFFFFFFFFFFFF95
:102B5000FFFFFFFFFFFFFFFFFFFFFFFFFFFFFFFF85
:102B6000FFFFFFFFFFFFFFFFFFFFFFFFFFFFFFFF75
:102B7000FFFFFFFFFFFFFFFFFFFFFFFFFFFFFFFF65
:102B8000FFFFFFFFFFFFFFFF7F7F7F7F7F7F7F7F55
:102B90007F7F7F7F7F7F7F7F7F7F7F7F7F7F7F7F45
:102BA0007F7F7F7F7F7F7F7F7F7F7F7F7F7F7F7F35
:102BB0007F7F7F7F7F7F7F7F7F7F7F7F7F7F7F7F25
:102BC0007F7F7F7F7F7F7F7F7F7F7F7F7F7F7F7F15
:102BD0007F7F7F7F7F7F7F7F7F7F7F7F7F7F7F7F05
:102BE0007F7F7F7F7F7F7F7F7F7F7F7F7F7F7F7FF5
:102BF0007F7F7F7F7F7F7F7F7F7F7F7F7F7F7F7FE5
:102C00007F7F7F7F7F7F7F7F0000000000000004C8
:102C1000040404040004050505000000000A0A1F5E
:102C20000A1F0A0A041E050E140F040313080402E7
:102C30001918060905021509160302010000000013
:102C40000402010101020401020404040201000A59
:102C5000041F040A000004041F0404000000000014
:102C60000302010000001F0000000000000000033C
:102C700003001008040201000E11191513110E04AF
:102C800006040404040E0E11100C02011F0E111094
:102C90000C10110E080C0A091F08081F010F101054
:102CA000110E0C02010F11110E1F10080402020276
:102CB0000E11110E11110E0E11111E100806000337
:102CC00003000303000003030003020108040201E0
:102CD00002040800001F001F000001020408040293
:102CE000010E1110080400040E11101615150E0E19
:102CF00011111F1111110F11110F11110F0E1101CF
:102D00000101110E070911111109071F01010F011E
:102D1000011F1F01010F0101010E11010119111EF7
:102D20001111111F111111070202020202071C08E2
:102D30000808080906110905030509110101010127
:102D400001011F111B151511111111111315191165
:102D5000110E11111111110E0F11110F0101010EA0
:102D60001111111509160F11110F0509110E11017D
:102D70000E10110E1F04040404040411111111118A
:102D8000110E11111111110A041111111515150A45
:102D900011110A040A111111110A040404041F106C
:102DA000080402011F0701010101010700010204DB
:102DB00008100007040404040407040A11000000BA
:102DC000000000000000001F0102040000000000DD
:102DD000000E101E111E01010D1311110F0000062F
:102DE000090109061010161911111E00000E111FFD
:102DF000010E040A0207020202001E11111E100E2B
:102E000001010D1311111101000101010101040063
:102E10000604040403010109050305090302020273
:102E200002020700000B1511111100000D0B09091A
:102E30000900000609090906000709090701010040
:102E40000E09090E08080000050301010100000E2B
:102E5000010608070202070202020200000909092E
:102E6000090E00001111110A040000111115150AB4
:102E70000000110A040A11000909090E08060000E1
:102E80001F0804021F0402020102020402020202DD
:102E900002020201020204020201160900000000FF
:102EA0000000000010000000000000000000000012
:102EB00000000000000004040404040400040000F6
:102EC00000140A0A000000000000000000001414B2
:102ED0003F140A3F0A0A000000041E1505060C14E0
:102EE000150F0400000012150D0A142C2A12000000
:102EF0000000040A0A1E151509360000000202012E
:102F00000000000000000000002010080808080869
:102F1000081020000002040808080808080402003D
:102F200000000004150E0E1504000000000004044B
:102F3000041F040404000000000000000000000062
:102F40000002020100000000001F0000000000005D
:102F5000000000000000000000020000001008084F
:102F6000080404020202010000000E1111111111E7
:102F7000110E00000000040604040404040E000006
:102F800000000E1111080402011F000000000E11C4
:102F9000100C1010110E00000000080C0A0A091E87
:102FA0000818000000001F01010F1010110E000092
:102FB00000000E09010F1111110E000000001F0981
:102FC000080404040404000000000E11110E111185
:102FD000110E000000000E1111111E10120E000043
:102FE00000000000040000000004000000000000D9
:102FF000000400000004040000201008040204087B
:1030000010200000000000001F00001F0000000052
:1030100000020408102010080402000000000E1135
:10302000110804040004000000000E111915151DFC
:10303000011E0000000004040C0A0A1E12330000E6
:1030400000000F12120E1212120F000000001E11CB
:1030500001010101110E000000000F1212121212E4
:10306000120F000000001F120A0E0A02121F0000B9
:1030700000001F120A0E0A020207000000001C12C4
:1030800001013911120C000000003312121E12123D
:103090001233000000001F0404040404041F000095
:1030A00000003E0808080808080907000000371259
:1030B0000A060A0A12370000000007020202020292
:1030C000223F000000001B1B1B1B151515150000DF
:1030D00000003B1216161A1A1217000000000E11FB
:1030E00011111111110E000000000F12120E020238
:1030F0000207000000000E1111111117190E18001F
:1031000000000F12120E0A121237000000001E11EA
:1031100001060810110F000000001F15040404042C
:10312000040E00000000331212121212120C0000E2
:1031300000003312120A0A0C0404000000001515E6
:10314000150E0A0A0A0A000000001B0A0A04040AF3
:103150000A1B000000001B0A0A040404040E0000FD
:1031600000001F0908040402121F0000001C0404D0
:103170000404040404041C000002020204040808FD
:1031800008100000000E08080808080808080E00CB
:1031900000040A0000000000000000000000000021
:1031A000000000000000003F0004000000000000DC
:1031B0000000000000000000000C121C123C000087
:1031C00000000302020E1212120E000000000000A6
:1031D000001C1202021C000000001810101C121229
:1031E000123C000000000000000C121E021C000037
:1031F00000003804041E0404041E00000000000047
:10320000003C120C021E221C00000302020E1212CD
:10321000123700000000040000060404040E000041
:1032200000000800000C0808080808070000030256
:10323000023A0A0E123700000000070404040404D6
:10324000041F000000000000000F151515150000F8
:1032500000000000000F12121237000000000000F2
:10326000000C1212120C000000000000000F1212DD
:10327000120E020700000000001C1212121C10386F
:1032800000000000001B0602020700000000000012
:10329000001E020C101E000000000004040E0404B6
:1032A0000418000000000000001B1212123C000075
:1032B000000000000037120A0C04000000000000AB
:1032C0000015150E0A0A000000000000001B0A0489
:1032D0000A1B0000000000000037120A0C0404035F
:1032E00000000000001E0804041E0000001808086A
:1032F000080408080808180008080808080808084A
:10330000080808080006040404080404040406006D
:10331000022518000000000000000000FF818181EC
:1033200081818181818181FF000000000000000017
:103330000000000000000000000000080808080865
:10334000080800001818000000486C241200000053
:1033500000000000000000000000002424247F1270
:1033600012127F12121200000000081C2A2A0A0CF6
:103370001828282A2A1C08080000002225151515DF
:103380002A585454542200000000000C1212120A51
:1033900076252911916E0000000606040300000046
:1033A0000000000000000000004020101008080885
:1033B000080808101020400000020408081010102F
:1033C00010101008080402000000000008086B1C20
:1033D0001C6B080800000000000000000808080836
:1033E0007F0808080800000000000000000000003E
:1033F00000000000060604030000000000000000BA
:10340000FE000000000000000000000000000000BE
:103410000000000006060000000080404020201050
:10342000100808040402020000000018244242426E
:103430004242424224180000000000080E0808081A
:1034400008080808083E00000000003C42424220F4
:1034500020100804427E00000000003C4242201878
:1034600020404042221C000000000020302824247C
:1034700022227E20207800000000007E0202021A34
:1034800026404042221C0000000000382402021A9C
:1034900026424242241800000000007E2222101022
:1034A00008080808080800000000003C42424224C6
:1034B00018244242423C00000000001824424242CC
:1034C00064584040241C0000000000000000181850
:1034D00000000000181800000000000000000008B4
:1034E000000000000008080400000040201008044C
:1034F00002040810204000000000000000007F00CF
:1035000000007F00000000000000000204081020FE
:1035100040201008040200000000003C42424640E7
:1035200020101000181800000000001C225A5555E9
:1035300055552D42221C00000000000808181414E4
:10354000243C224242E700000000001F2222221EEB
:1035500022424242221F00000000007C4242010140
:1035600001010142221C00000000001F22424242D1
:1035700042424242221F00000000003F4212121E3F
:1035800012120242423F00000000003F4212121E8F
:1035900012120202020700000000003C2222010178
:1035A00001712122221C0000000000E74242424239
:1035B0007E42424242E700000000003E0808080840
:1035C00008080808083E00000000007C10101010D9
:1035D000101010101010110F0000007722120A0EA8
:1035E0000A121222227700000000000702020202E3
:1035F00002020202427F00000000007736363636B3
:103600002A2A2A2A2A6B0000000000E346464A4A7A
:1036100052525262624700000000001C22414141A8
:1036200041414141221C00000000003F4242424211
:103630003E020202020700000000001C224141413C
:1036400041414D53321C60000000003F4242423E67
:103650001212222242C700000000007C42420204F3
:1036600018204042423E00000000007F4908080840
:1036700008080808081C0000000000E74242424217
:1036800042424242423C0000000000E74242222403
:1036900024141418080800000000006B4949494927
:1036A0005555362222220000000000E7422424184B
:1036B0001818242442E70000000000772222141486
:1036C00008080808081C00000000007E21201010D7
:1036D00008040442423F000000780808080808086F
:1036E0000808080808087800000002020404080816
:1036F0000810102020204040001E10101010101044
:103700001010101010101E000038440000000000BF
:1037100000000000000000000000000000000000A9
:1037200000000000000000FF00060800000000008C
:103730000000000000000000000000000000003C4D
:103740004278444242FC0000000000030202021AD8
:1037500026424242261A0000000000000000003805
:1037600044020202443800000000006040404078FB
:103770004442424264D80000000000000000003CC7
:10378000427E0202423C0000000000F08808087EF1
:1037900008080808083E0000000000000000007C47
:1037A00022221C023C42423C000000030202023A78
:1037B0004642424242E700000000000C0C00000EAE
:1037C00008080808083E00000000003030000038FB
:1037D000202020202020221E00000003020202726E
:1037E000120A1612227700000000000E08080808CE
:1037F00008080808083E0000000000000000007FE4
:103800009292929292B70000000000000000003BEC
:103810004642424242E70000000000000000003C37
:1038200042424242423C0000000000000000001BF7
:1038300026424242221E02070000000000000078DB
:1038400044424242447840E000000000000000771B
:103850004C040404041F0000000000000000007C71
:1038600042023C40423E0000000000000008083ECA
:10387000080808080830000000000000000000638D
:103880004242424262DC000000000000000000E70B
:10389000422424140808000000000000000000EB8F
:1038A0004949555522220000000000000000007622
:1038B00024181818246E000000000000000000E723
:1038C0004224241418080807000000000000007EAD
:1038D00022100808447E000000C020202020201074
:1038E000202020202020C0001010101010101010D8
:1038F000101010101010101000060808080808100A
:1039000008080808080806000C32C2000000000081
:1039100000000000000000001F1C1F1E1F1E1F1FB4
:103920001E1F1E1F0400000800000000000000020F
:1039300000010000100000007365742073656300CF
:10394000646961706C61795F74696D650000000085
:10395000736574206D696E757465000073657420FD
:103960006D6F6E7468000000736574207965617214
:103970000000000073657420686F75007365742023
:1039800064617900A439000800000020B400000040
:1039900028010008583A0008B4000020A40B0000D9
:1039A00044010008000000000000000000000000CA
:1039B00000000000000000000204060800000000F3
:1039C00001020304010203040607080900000000C5
:1039D00000000000000000000000000000000000E7
:1039E00000000000000000000100000000F10000E5
:1039F0000000000000000000000180004000080CF2
:103A0000010000000100000040390008D11C00083E
:103A10000200000038390008692100080300000096
:103A200050390008712000080400000074390008B3
:103A3000F51F0008050000007C390008851F0008FC
:103A4000060000005C390008ED20000807000000B7
:083A500068390008E1210008BB
:04000005080000ED02
:00000001FF
